{
  "_format": "hh3-artifact-1",
  "contractName": "MetaNodeStake",
  "sourceName": "contracts/MetaNodeStake.sol",
  "abi": [
    {
      "inputs": [],
      "name": "AccessControlBadConfirmation",
      "type": "error"
    },
    {
      "inputs": [
        {
          "internalType": "address",
          "name": "account",
          "type": "address"
        },
        {
          "internalType": "bytes32",
          "name": "neededRole",
          "type": "bytes32"
        }
      ],
      "name": "AccessControlUnauthorizedAccount",
      "type": "error"
    },
    {
      "inputs": [
        {
          "internalType": "address",
          "name": "target",
          "type": "address"
        }
      ],
      "name": "AddressEmptyCode",
      "type": "error"
    },
    {
      "inputs": [
        {
          "internalType": "address",
          "name": "implementation",
          "type": "address"
        }
      ],
      "name": "ERC1967InvalidImplementation",
      "type": "error"
    },
    {
      "inputs": [],
      "name": "ERC1967NonPayable",
      "type": "error"
    },
    {
      "inputs": [],
      "name": "FailedCall",
      "type": "error"
    },
    {
      "inputs": [
        {
          "internalType": "uint256",
          "name": "balance",
          "type": "uint256"
        },
        {
          "internalType": "uint256",
          "name": "needed",
          "type": "uint256"
        }
      ],
      "name": "InsufficientBalance",
      "type": "error"
    },
    {
      "inputs": [],
      "name": "InvalidInitialization",
      "type": "error"
    },
    {
      "inputs": [],
      "name": "NotInitializing",
      "type": "error"
    },
    {
      "inputs": [],
      "name": "ReentrancyGuardReentrantCall",
      "type": "error"
    },
    {
      "inputs": [
        {
          "internalType": "address",
          "name": "token",
          "type": "address"
        }
      ],
      "name": "SafeERC20FailedOperation",
      "type": "error"
    },
    {
      "inputs": [],
      "name": "UUPSUnauthorizedCallContext",
      "type": "error"
    },
    {
      "inputs": [
        {
          "internalType": "bytes32",
          "name": "slot",
          "type": "bytes32"
        }
      ],
      "name": "UUPSUnsupportedProxiableUUID",
      "type": "error"
    },
    {
      "anonymous": false,
      "inputs": [
        {
          "indexed": true,
          "internalType": "address",
          "name": "stTokenAddress",
          "type": "address"
        },
        {
          "indexed": true,
          "internalType": "uint256",
          "name": "poolWeight",
          "type": "uint256"
        },
        {
          "indexed": true,
          "internalType": "uint256",
          "name": "lastRewardBlock",
          "type": "uint256"
        },
        {
          "indexed": false,
          "internalType": "uint256",
          "name": "minDepositAmount",
          "type": "uint256"
        },
        {
          "indexed": false,
          "internalType": "uint256",
          "name": "unstakeLockedBlocks",
          "type": "uint256"
        }
      ],
      "name": "AddPool",
      "type": "event"
    },
    {
      "anonymous": false,
      "inputs": [
        {
          "indexed": true,
          "internalType": "address",
          "name": "user",
          "type": "address"
        },
        {
          "indexed": true,
          "internalType": "uint256",
          "name": "poolId",
          "type": "uint256"
        },
        {
          "indexed": false,
          "internalType": "uint256",
          "name": "MetaNodeReward",
          "type": "uint256"
        }
      ],
      "name": "Claim",
      "type": "event"
    },
    {
      "anonymous": false,
      "inputs": [
        {
          "indexed": true,
          "internalType": "address",
          "name": "user",
          "type": "address"
        },
        {
          "indexed": true,
          "internalType": "uint256",
          "name": "poolId",
          "type": "uint256"
        },
        {
          "indexed": false,
          "internalType": "uint256",
          "name": "amount",
          "type": "uint256"
        }
      ],
      "name": "Deposit",
      "type": "event"
    },
    {
      "anonymous": false,
      "inputs": [
        {
          "indexed": false,
          "internalType": "uint64",
          "name": "version",
          "type": "uint64"
        }
      ],
      "name": "Initialized",
      "type": "event"
    },
    {
      "anonymous": false,
      "inputs": [],
      "name": "PauseClaim",
      "type": "event"
    },
    {
      "anonymous": false,
      "inputs": [],
      "name": "PauseDeposit",
      "type": "event"
    },
    {
      "anonymous": false,
      "inputs": [],
      "name": "PauseWithdraw",
      "type": "event"
    },
    {
      "anonymous": false,
      "inputs": [
        {
          "indexed": true,
          "internalType": "address",
          "name": "user",
          "type": "address"
        },
        {
          "indexed": true,
          "internalType": "uint256",
          "name": "poolId",
          "type": "uint256"
        },
        {
          "indexed": false,
          "internalType": "uint256",
          "name": "amount",
          "type": "uint256"
        }
      ],
      "name": "RequestUnstake",
      "type": "event"
    },
    {
      "anonymous": false,
      "inputs": [
        {
          "indexed": true,
          "internalType": "bytes32",
          "name": "role",
          "type": "bytes32"
        },
        {
          "indexed": true,
          "internalType": "bytes32",
          "name": "previousAdminRole",
          "type": "bytes32"
        },
        {
          "indexed": true,
          "internalType": "bytes32",
          "name": "newAdminRole",
          "type": "bytes32"
        }
      ],
      "name": "RoleAdminChanged",
      "type": "event"
    },
    {
      "anonymous": false,
      "inputs": [
        {
          "indexed": true,
          "internalType": "bytes32",
          "name": "role",
          "type": "bytes32"
        },
        {
          "indexed": true,
          "internalType": "address",
          "name": "account",
          "type": "address"
        },
        {
          "indexed": true,
          "internalType": "address",
          "name": "sender",
          "type": "address"
        }
      ],
      "name": "RoleGranted",
      "type": "event"
    },
    {
      "anonymous": false,
      "inputs": [
        {
          "indexed": true,
          "internalType": "bytes32",
          "name": "role",
          "type": "bytes32"
        },
        {
          "indexed": true,
          "internalType": "address",
          "name": "account",
          "type": "address"
        },
        {
          "indexed": true,
          "internalType": "address",
          "name": "sender",
          "type": "address"
        }
      ],
      "name": "RoleRevoked",
      "type": "event"
    },
    {
      "anonymous": false,
      "inputs": [
        {
          "indexed": true,
          "internalType": "uint256",
          "name": "endBlock",
          "type": "uint256"
        }
      ],
      "name": "SetEndBlock",
      "type": "event"
    },
    {
      "anonymous": false,
      "inputs": [
        {
          "indexed": true,
          "internalType": "contract IERC20",
          "name": "MetaNode",
          "type": "address"
        }
      ],
      "name": "SetMetaNode",
      "type": "event"
    },
    {
      "anonymous": false,
      "inputs": [
        {
          "indexed": true,
          "internalType": "uint256",
          "name": "MetaNodePerBlock",
          "type": "uint256"
        }
      ],
      "name": "SetMetaNodePerBlock",
      "type": "event"
    },
    {
      "anonymous": false,
      "inputs": [
        {
          "indexed": true,
          "internalType": "uint256",
          "name": "poolId",
          "type": "uint256"
        },
        {
          "indexed": true,
          "internalType": "uint256",
          "name": "poolWeight",
          "type": "uint256"
        },
        {
          "indexed": false,
          "internalType": "uint256",
          "name": "totalPoolWeight",
          "type": "uint256"
        }
      ],
      "name": "SetPoolWeight",
      "type": "event"
    },
    {
      "anonymous": false,
      "inputs": [
        {
          "indexed": true,
          "internalType": "uint256",
          "name": "startBlock",
          "type": "uint256"
        }
      ],
      "name": "SetStartBlock",
      "type": "event"
    },
    {
      "anonymous": false,
      "inputs": [],
      "name": "UnpauseClaim",
      "type": "event"
    },
    {
      "anonymous": false,
      "inputs": [],
      "name": "UnpauseDeposit",
      "type": "event"
    },
    {
      "anonymous": false,
      "inputs": [],
      "name": "UnpauseWithdraw",
      "type": "event"
    },
    {
      "anonymous": false,
      "inputs": [
        {
          "indexed": true,
          "internalType": "uint256",
          "name": "poolId",
          "type": "uint256"
        },
        {
          "indexed": true,
          "internalType": "uint256",
          "name": "lastRewardBlock",
          "type": "uint256"
        },
        {
          "indexed": false,
          "internalType": "uint256",
          "name": "totalMetaNode",
          "type": "uint256"
        }
      ],
      "name": "UpdatePool",
      "type": "event"
    },
    {
      "anonymous": false,
      "inputs": [
        {
          "indexed": true,
          "internalType": "uint256",
          "name": "poolId",
          "type": "uint256"
        },
        {
          "indexed": true,
          "internalType": "uint256",
          "name": "minDepositAmount",
          "type": "uint256"
        },
        {
          "indexed": true,
          "internalType": "uint256",
          "name": "unstakeLockedBlocks",
          "type": "uint256"
        }
      ],
      "name": "UpdatePoolInfo",
      "type": "event"
    },
    {
      "anonymous": false,
      "inputs": [
        {
          "indexed": true,
          "internalType": "address",
          "name": "implementation",
          "type": "address"
        }
      ],
      "name": "Upgraded",
      "type": "event"
    },
    {
      "anonymous": false,
      "inputs": [
        {
          "indexed": true,
          "internalType": "address",
          "name": "user",
          "type": "address"
        },
        {
          "indexed": true,
          "internalType": "uint256",
          "name": "poolId",
          "type": "uint256"
        },
        {
          "indexed": false,
          "internalType": "uint256",
          "name": "amount",
          "type": "uint256"
        },
        {
          "indexed": true,
          "internalType": "uint256",
          "name": "blockNumber",
          "type": "uint256"
        }
      ],
      "name": "Withdraw",
      "type": "event"
    },
    {
      "inputs": [],
      "name": "ADMIN_ROLE",
      "outputs": [
        {
          "internalType": "bytes32",
          "name": "",
          "type": "bytes32"
        }
      ],
      "stateMutability": "view",
      "type": "function"
    },
    {
      "inputs": [],
      "name": "DEFAULT_ADMIN_ROLE",
      "outputs": [
        {
          "internalType": "bytes32",
          "name": "",
          "type": "bytes32"
        }
      ],
      "stateMutability": "view",
      "type": "function"
    },
    {
      "inputs": [],
      "name": "ETH_PID",
      "outputs": [
        {
          "internalType": "uint256",
          "name": "",
          "type": "uint256"
        }
      ],
      "stateMutability": "view",
      "type": "function"
    },
    {
      "inputs": [],
      "name": "MetaNode",
      "outputs": [
        {
          "internalType": "contract IERC20",
          "name": "",
          "type": "address"
        }
      ],
      "stateMutability": "view",
      "type": "function"
    },
    {
      "inputs": [],
      "name": "MetaNodePerBlock",
      "outputs": [
        {
          "internalType": "uint256",
          "name": "",
          "type": "uint256"
        }
      ],
      "stateMutability": "view",
      "type": "function"
    },
    {
      "inputs": [],
      "name": "UPGRADE_INTERFACE_VERSION",
      "outputs": [
        {
          "internalType": "string",
          "name": "",
          "type": "string"
        }
      ],
      "stateMutability": "view",
      "type": "function"
    },
    {
      "inputs": [],
      "name": "UPGRADE_ROLE",
      "outputs": [
        {
          "internalType": "bytes32",
          "name": "",
          "type": "bytes32"
        }
      ],
      "stateMutability": "view",
      "type": "function"
    },
    {
      "inputs": [
        {
          "internalType": "address",
          "name": "_stTokenAddress",
          "type": "address"
        },
        {
          "internalType": "uint256",
          "name": "_poolWeight",
          "type": "uint256"
        },
        {
          "internalType": "uint256",
          "name": "_minDepositAmount",
          "type": "uint256"
        },
        {
          "internalType": "uint256",
          "name": "_unstakeLockedBlocks",
          "type": "uint256"
        },
        {
          "internalType": "bool",
          "name": "_withUpdate",
          "type": "bool"
        }
      ],
      "name": "addPool",
      "outputs": [],
      "stateMutability": "nonpayable",
      "type": "function"
    },
    {
      "inputs": [
        {
          "internalType": "uint256",
          "name": "_pid",
          "type": "uint256"
        }
      ],
      "name": "claim",
      "outputs": [],
      "stateMutability": "nonpayable",
      "type": "function"
    },
    {
      "inputs": [],
      "name": "claimPaused",
      "outputs": [
        {
          "internalType": "bool",
          "name": "",
          "type": "bool"
        }
      ],
      "stateMutability": "view",
      "type": "function"
    },
    {
      "inputs": [
        {
          "internalType": "uint256",
          "name": "_pid",
          "type": "uint256"
        },
        {
          "internalType": "uint256",
          "name": "_amount",
          "type": "uint256"
        }
      ],
      "name": "deposit",
      "outputs": [],
      "stateMutability": "nonpayable",
      "type": "function"
    },
    {
      "inputs": [],
      "name": "depositETH",
      "outputs": [],
      "stateMutability": "payable",
      "type": "function"
    },
    {
      "inputs": [],
      "name": "depositPaused",
      "outputs": [
        {
          "internalType": "bool",
          "name": "",
          "type": "bool"
        }
      ],
      "stateMutability": "view",
      "type": "function"
    },
    {
      "inputs": [],
      "name": "endBlock",
      "outputs": [
        {
          "internalType": "uint256",
          "name": "",
          "type": "uint256"
        }
      ],
      "stateMutability": "view",
      "type": "function"
    },
    {
      "inputs": [
        {
          "internalType": "uint256",
          "name": "_from",
          "type": "uint256"
        },
        {
          "internalType": "uint256",
          "name": "_to",
          "type": "uint256"
        }
      ],
      "name": "getMultiplier",
      "outputs": [
        {
          "internalType": "uint256",
          "name": "multiplier",
          "type": "uint256"
        }
      ],
      "stateMutability": "view",
      "type": "function"
    },
    {
      "inputs": [
        {
          "internalType": "bytes32",
          "name": "role",
          "type": "bytes32"
        }
      ],
      "name": "getRoleAdmin",
      "outputs": [
        {
          "internalType": "bytes32",
          "name": "",
          "type": "bytes32"
        }
      ],
      "stateMutability": "view",
      "type": "function"
    },
    {
      "inputs": [
        {
          "internalType": "bytes32",
          "name": "role",
          "type": "bytes32"
        },
        {
          "internalType": "address",
          "name": "account",
          "type": "address"
        }
      ],
      "name": "grantRole",
      "outputs": [],
      "stateMutability": "nonpayable",
      "type": "function"
    },
    {
      "inputs": [
        {
          "internalType": "bytes32",
          "name": "role",
          "type": "bytes32"
        },
        {
          "internalType": "address",
          "name": "account",
          "type": "address"
        }
      ],
      "name": "hasRole",
      "outputs": [
        {
          "internalType": "bool",
          "name": "",
          "type": "bool"
        }
      ],
      "stateMutability": "view",
      "type": "function"
    },
    {
      "inputs": [
        {
          "internalType": "contract IERC20",
          "name": "_MetaNode",
          "type": "address"
        },
        {
          "internalType": "uint256",
          "name": "_startBlock",
          "type": "uint256"
        },
        {
          "internalType": "uint256",
          "name": "_endBlock",
          "type": "uint256"
        },
        {
          "internalType": "uint256",
          "name": "_MetaNodePerBlock",
          "type": "uint256"
        }
      ],
      "name": "initialize",
      "outputs": [],
      "stateMutability": "nonpayable",
      "type": "function"
    },
    {
      "inputs": [],
      "name": "massUpdatePools",
      "outputs": [],
      "stateMutability": "nonpayable",
      "type": "function"
    },
    {
      "inputs": [],
      "name": "pauseClaim",
      "outputs": [],
      "stateMutability": "nonpayable",
      "type": "function"
    },
    {
      "inputs": [],
      "name": "pauseDeposit",
      "outputs": [],
      "stateMutability": "nonpayable",
      "type": "function"
    },
    {
      "inputs": [],
      "name": "pauseWithdraw",
      "outputs": [],
      "stateMutability": "nonpayable",
      "type": "function"
    },
    {
      "inputs": [
        {
          "internalType": "uint256",
          "name": "_pid",
          "type": "uint256"
        },
        {
          "internalType": "address",
          "name": "_user",
          "type": "address"
        }
      ],
      "name": "pendingMetaNode",
      "outputs": [
        {
          "internalType": "uint256",
          "name": "",
          "type": "uint256"
        }
      ],
      "stateMutability": "view",
      "type": "function"
    },
    {
      "inputs": [
        {
          "internalType": "uint256",
          "name": "_pid",
          "type": "uint256"
        },
        {
          "internalType": "address",
          "name": "_user",
          "type": "address"
        },
        {
          "internalType": "uint256",
          "name": "_blockNumber",
          "type": "uint256"
        }
      ],
      "name": "pendingMetaNodeByBlockNumber",
      "outputs": [
        {
          "internalType": "uint256",
          "name": "",
          "type": "uint256"
        }
      ],
      "stateMutability": "view",
      "type": "function"
    },
    {
      "inputs": [
        {
          "internalType": "uint256",
          "name": "",
          "type": "uint256"
        }
      ],
      "name": "pool",
      "outputs": [
        {
          "internalType": "address",
          "name": "stTokenAddress",
          "type": "address"
        },
        {
          "internalType": "uint256",
          "name": "poolWeight",
          "type": "uint256"
        },
        {
          "internalType": "uint256",
          "name": "lastRewardBlock",
          "type": "uint256"
        },
        {
          "internalType": "uint256",
          "name": "accMetaNodePerST",
          "type": "uint256"
        },
        {
          "internalType": "uint256",
          "name": "stTokenAmount",
          "type": "uint256"
        },
        {
          "internalType": "uint256",
          "name": "minDepositAmount",
          "type": "uint256"
        },
        {
          "internalType": "uint256",
          "name": "unstakeLockedBlocks",
          "type": "uint256"
        }
      ],
      "stateMutability": "view",
      "type": "function"
    },
    {
      "inputs": [],
      "name": "poolLength",
      "outputs": [
        {
          "internalType": "uint256",
          "name": "",
          "type": "uint256"
        }
      ],
      "stateMutability": "view",
      "type": "function"
    },
    {
      "inputs": [],
      "name": "proxiableUUID",
      "outputs": [
        {
          "internalType": "bytes32",
          "name": "",
          "type": "bytes32"
        }
      ],
      "stateMutability": "view",
      "type": "function"
    },
    {
      "inputs": [
        {
          "internalType": "bytes32",
          "name": "role",
          "type": "bytes32"
        },
        {
          "internalType": "address",
          "name": "callerConfirmation",
          "type": "address"
        }
      ],
      "name": "renounceRole",
      "outputs": [],
      "stateMutability": "nonpayable",
      "type": "function"
    },
    {
      "inputs": [
        {
          "internalType": "bytes32",
          "name": "role",
          "type": "bytes32"
        },
        {
          "internalType": "address",
          "name": "account",
          "type": "address"
        }
      ],
      "name": "revokeRole",
      "outputs": [],
      "stateMutability": "nonpayable",
      "type": "function"
    },
    {
      "inputs": [
        {
          "internalType": "uint256",
          "name": "_endBlock",
          "type": "uint256"
        }
      ],
      "name": "setEndBlock",
      "outputs": [],
      "stateMutability": "nonpayable",
      "type": "function"
    },
    {
      "inputs": [
        {
          "internalType": "contract IERC20",
          "name": "_MetaNode",
          "type": "address"
        }
      ],
      "name": "setMetaNode",
      "outputs": [],
      "stateMutability": "nonpayable",
      "type": "function"
    },
    {
      "inputs": [
        {
          "internalType": "uint256",
          "name": "_MetaNodePerBlock",
          "type": "uint256"
        }
      ],
      "name": "setMetaNodePerBlock",
      "outputs": [],
      "stateMutability": "nonpayable",
      "type": "function"
    },
    {
      "inputs": [
        {
          "internalType": "uint256",
          "name": "_pid",
          "type": "uint256"
        },
        {
          "internalType": "uint256",
          "name": "_poolWeight",
          "type": "uint256"
        },
        {
          "internalType": "bool",
          "name": "_withUpdate",
          "type": "bool"
        }
      ],
      "name": "setPoolWeight",
      "outputs": [],
      "stateMutability": "nonpayable",
      "type": "function"
    },
    {
      "inputs": [
        {
          "internalType": "uint256",
          "name": "_startBlock",
          "type": "uint256"
        }
      ],
      "name": "setStartBlock",
      "outputs": [],
      "stateMutability": "nonpayable",
      "type": "function"
    },
    {
      "inputs": [
        {
          "internalType": "uint256",
          "name": "_pid",
          "type": "uint256"
        },
        {
          "internalType": "address",
          "name": "_user",
          "type": "address"
        }
      ],
      "name": "stakingBalance",
      "outputs": [
        {
          "internalType": "uint256",
          "name": "",
          "type": "uint256"
        }
      ],
      "stateMutability": "view",
      "type": "function"
    },
    {
      "inputs": [],
      "name": "startBlock",
      "outputs": [
        {
          "internalType": "uint256",
          "name": "",
          "type": "uint256"
        }
      ],
      "stateMutability": "view",
      "type": "function"
    },
    {
      "inputs": [
        {
          "internalType": "bytes4",
          "name": "interfaceId",
          "type": "bytes4"
        }
      ],
      "name": "supportsInterface",
      "outputs": [
        {
          "internalType": "bool",
          "name": "",
          "type": "bool"
        }
      ],
      "stateMutability": "view",
      "type": "function"
    },
    {
      "inputs": [],
      "name": "totalPoolWeight",
      "outputs": [
        {
          "internalType": "uint256",
          "name": "",
          "type": "uint256"
        }
      ],
      "stateMutability": "view",
      "type": "function"
    },
    {
      "inputs": [],
      "name": "unpauseClaim",
      "outputs": [],
      "stateMutability": "nonpayable",
      "type": "function"
    },
    {
      "inputs": [],
      "name": "unpauseDeposit",
      "outputs": [],
      "stateMutability": "nonpayable",
      "type": "function"
    },
    {
      "inputs": [],
      "name": "unpauseWithdraw",
      "outputs": [],
      "stateMutability": "nonpayable",
      "type": "function"
    },
    {
      "inputs": [
        {
          "internalType": "uint256",
          "name": "_pid",
          "type": "uint256"
        },
        {
          "internalType": "uint256",
          "name": "_amount",
          "type": "uint256"
        }
      ],
      "name": "unstake",
      "outputs": [],
      "stateMutability": "nonpayable",
      "type": "function"
    },
    {
      "inputs": [
        {
          "internalType": "uint256",
          "name": "_pid",
          "type": "uint256"
        }
      ],
      "name": "updatePool",
      "outputs": [],
      "stateMutability": "nonpayable",
      "type": "function"
    },
    {
      "inputs": [
        {
          "internalType": "uint256",
          "name": "_pid",
          "type": "uint256"
        },
        {
          "internalType": "uint256",
          "name": "_minDepositAmount",
          "type": "uint256"
        },
        {
          "internalType": "uint256",
          "name": "_unstakeLockedBlocks",
          "type": "uint256"
        }
      ],
      "name": "updatePool",
      "outputs": [],
      "stateMutability": "nonpayable",
      "type": "function"
    },
    {
      "inputs": [
        {
          "internalType": "address",
          "name": "newImplementation",
          "type": "address"
        },
        {
          "internalType": "bytes",
          "name": "data",
          "type": "bytes"
        }
      ],
      "name": "upgradeToAndCall",
      "outputs": [],
      "stateMutability": "payable",
      "type": "function"
    },
    {
      "inputs": [
        {
          "internalType": "uint256",
          "name": "",
          "type": "uint256"
        },
        {
          "internalType": "address",
          "name": "",
          "type": "address"
        }
      ],
      "name": "user",
      "outputs": [
        {
          "internalType": "uint256",
          "name": "stAmount",
          "type": "uint256"
        },
        {
          "internalType": "uint256",
          "name": "finishedMetaNode",
          "type": "uint256"
        },
        {
          "internalType": "uint256",
          "name": "pendingMetaNode",
          "type": "uint256"
        }
      ],
      "stateMutability": "view",
      "type": "function"
    },
    {
      "inputs": [
        {
          "internalType": "uint256",
          "name": "_pid",
          "type": "uint256"
        }
      ],
      "name": "withdraw",
      "outputs": [],
      "stateMutability": "nonpayable",
      "type": "function"
    },
    {
      "inputs": [
        {
          "internalType": "uint256",
          "name": "_pid",
          "type": "uint256"
        },
        {
          "internalType": "address",
          "name": "_user",
          "type": "address"
        }
      ],
      "name": "withdrawAmount",
      "outputs": [
        {
          "internalType": "uint256",
          "name": "requestAmount",
          "type": "uint256"
        },
        {
          "internalType": "uint256",
          "name": "pendingWithdrawAmount",
          "type": "uint256"
        }
      ],
      "stateMutability": "view",
      "type": "function"
    },
    {
      "inputs": [],
      "name": "withdrawPaused",
      "outputs": [
        {
          "internalType": "bool",
          "name": "",
          "type": "bool"
        }
      ],
      "stateMutability": "view",
      "type": "function"
    }
  ],
  "bytecode": "0x60a06040523073ffffffffffffffffffffffffffffffffffffffff1660809073ffffffffffffffffffffffffffffffffffffffff168152503480156041575f5ffd5b50608051615e9a6100685f395f8181613684015281816136d901526139130152615e9a5ff3fe6080604052600436106102c8575f3560e01c806375b238fc11610174578063c713aa94116100db578063e2bbb15811610094578063f6326fb31161006e578063f6326fb314610a32578063fad07ece14610a3c578063fe31311214610a64578063ff42335714610aa6576102c8565b8063e2bbb158146109a6578063ea5c219d146109ce578063f35e4a6e14610a0a576102c8565b8063c713aa94146108c6578063d22f1d80146108ee578063d547741f14610918578063d7bc176914610940578063d86c044414610968578063de065caa14610990576102c8565b8063a217fddf1161012d578063a217fddf146107cc578063ab5e124a146107f6578063ad3cb1cc14610820578063b6d9d9191461084a578063b908afa814610872578063bfc3ebba1461089c576102c8565b806375b238fc146106c25780638dbb1e3a146106ec5780638ff095f91461072857806391d148541461073e5780639e2c8a5b1461077a5780639ea96e66146107a2576102c8565b8063379607f51161023357806352d1902d116101ec57806361a9a03d116101c657806361a9a03d14610632578063630b5ba11461065a5780636325d5bc1461067057806369026e88146106ac576102c8565b806352d1902d146105dc5780635bb6d007146106065780636155e3de1461061c576102c8565b8063379607f51461050857806348cd4cb1146105305780634ec81af11461055a5780634f1ef286146105825780635157ced51461059e57806351eb05a6146105b4576102c8565b8063248a9ca311610285578063248a9ca3146103ec5780632e1a7d4d146104285780632f2ff15d146104505780632f3ffb9f1461047857806336568abe146104a257806337849b3c146104ca576102c8565b806301ffc9a7146102cc578063025590041461030857806302befd2414610332578063081e3eda1461035c578063083c63231461038657806311548234146103b0575b5f5ffd5b3480156102d7575f5ffd5b506102f260048036038101906102ed9190614466565b610ae3565b6040516102ff91906144ab565b60405180910390f35b348015610313575f5ffd5b5061031c610b5c565b60405161032991906144dc565b60405180910390f35b34801561033d575f5ffd5b50610346610b62565b60405161035391906144ab565b60405180910390f35b348015610367575f5ffd5b50610370610b74565b60405161037d91906144dc565b60405180910390f35b348015610391575f5ffd5b5061039a610b80565b6040516103a791906144dc565b60405180910390f35b3480156103bb575f5ffd5b506103d660048036038101906103d19190614579565b610b86565b6040516103e391906144dc565b60405180910390f35b3480156103f7575f5ffd5b50610412600480360381019061040d91906145ea565b610c27565b60405161041f9190614624565b60405180910390f35b348015610433575f5ffd5b5061044e6004803603810190610449919061463d565b610c51565b005b34801561045b575f5ffd5b5061047660048036038101906104719190614668565b610fe2565b005b348015610483575f5ffd5b5061048c611004565b60405161049991906144ab565b60405180910390f35b3480156104ad575f5ffd5b506104c860048036038101906104c39190614668565b611017565b005b3480156104d5575f5ffd5b506104f060048036038101906104eb9190614579565b611092565b6040516104ff939291906146a6565b60405180910390f35b348015610513575f5ffd5b5061052e6004803603810190610529919061463d565b6110c3565b005b34801561053b575f5ffd5b506105446112bd565b60405161055191906144dc565b60405180910390f35b348015610565575f5ffd5b50610580600480360381019061057b9190614716565b6112c2565b005b61059c600480360381019061059791906148b6565b611523565b005b3480156105a9575f5ffd5b506105b2611542565b005b3480156105bf575f5ffd5b506105da60048036038101906105d5919061463d565b611602565b005b3480156105e7575f5ffd5b506105f06118cb565b6040516105fd9190614624565b60405180910390f35b348015610611575f5ffd5b5061061a6118fc565b005b348015610627575f5ffd5b506106306119be565b005b34801561063d575f5ffd5b5061065860048036038101906106539190614910565b611a82565b005b348015610665575f5ffd5b5061066e611b53565b005b34801561067b575f5ffd5b506106966004803603810190610691919061493b565b611b83565b6040516106a391906144dc565b60405180910390f35b3480156106b7575f5ffd5b506106c0611d14565b005b3480156106cd575f5ffd5b506106d6611dd6565b6040516106e39190614624565b60405180910390f35b3480156106f7575f5ffd5b50610712600480360381019061070d919061498b565b611dfa565b60405161071f91906144dc565b60405180910390f35b348015610733575f5ffd5b5061073c611f0f565b005b348015610749575f5ffd5b50610764600480360381019061075f9190614668565b611fd3565b60405161077191906144ab565b60405180910390f35b348015610785575f5ffd5b506107a0600480360381019061079b919061498b565b612044565b005b3480156107ad575f5ffd5b506107b6612314565b6040516107c391906144dc565b60405180910390f35b3480156107d7575f5ffd5b506107e061231a565b6040516107ed9190614624565b60405180910390f35b348015610801575f5ffd5b5061080a612320565b60405161081791906144ab565b60405180910390f35b34801561082b575f5ffd5b50610834612333565b6040516108419190614a29565b60405180910390f35b348015610855575f5ffd5b50610870600480360381019061086b9190614a73565b61236c565b005b34801561087d575f5ffd5b50610886612690565b6040516108939190614624565b60405180910390f35b3480156108a7575f5ffd5b506108b06126b4565b6040516108bd91906144dc565b60405180910390f35b3480156108d1575f5ffd5b506108ec60048036038101906108e7919061463d565b6126b8565b005b3480156108f9575f5ffd5b5061090261275e565b60405161090f9190614b45565b60405180910390f35b348015610923575f5ffd5b5061093e60048036038101906109399190614668565b612782565b005b34801561094b575f5ffd5b506109666004803603810190610961919061463d565b6127a4565b005b348015610973575f5ffd5b5061098e60048036038101906109899190614b5e565b612848565b005b34801561099b575f5ffd5b506109a4612940565b005b3480156109b1575f5ffd5b506109cc60048036038101906109c7919061498b565b612a02565b005b3480156109d9575f5ffd5b506109f460048036038101906109ef9190614579565b612bad565b604051610a0191906144dc565b60405180910390f35b348015610a15575f5ffd5b50610a306004803603810190610a2b919061463d565b612c0a565b005b610a3a612cb0565b005b348015610a47575f5ffd5b50610a626004803603810190610a5d9190614bae565b612e0b565b005b348015610a6f575f5ffd5b50610a8a6004803603810190610a85919061463d565b612f7a565b604051610a9d9796959493929190614c0d565b60405180910390f35b348015610ab1575f5ffd5b50610acc6004803603810190610ac79190614579565b612fe6565b604051610ada929190614c7a565b60405180910390f35b5f7f7965db0b000000000000000000000000000000000000000000000000000000007bffffffffffffffffffffffffffffffffffffffffffffffffffffffff1916827bffffffffffffffffffffffffffffffffffffffffffffffffffffffff19161480610b555750610b548261313b565b5b9050919050565b60045481565b60035f9054906101000a900460ff1681565b5f600580549050905090565b60015481565b5f826005805490508110610bcf576040517f08c379a0000000000000000000000000000000000000000000000000000000008152600401610bc690614ceb565b60405180910390fd5b60065f8581526020019081526020015f205f8473ffffffffffffffffffffffffffffffffffffffff1673ffffffffffffffffffffffffffffffffffffffff1681526020019081526020015f205f015491505092915050565b5f5f610c316131a4565b9050805f015f8481526020019081526020015f2060010154915050919050565b806005805490508110610c99576040517f08c379a0000000000000000000000000000000000000000000000000000000008152600401610c9090614ceb565b60405180910390fd5b600360019054906101000a900460ff1615610ce9576040517f08c379a0000000000000000000000000000000000000000000000000000000008152600401610ce090614d53565b60405180910390fd5b5f60058381548110610cfe57610cfd614d71565b5b905f5260205f20906007020190505f60065f8581526020019081526020015f205f3373ffffffffffffffffffffffffffffffffffffffff1673ffffffffffffffffffffffffffffffffffffffff1681526020019081526020015f2090505f5f5f5f90505b8360030180549050811015610dea5743846003018281548110610d8857610d87614d71565b5b905f5260205f2090600202016001015411610dea57836003018181548110610db357610db2614d71565b5b905f5260205f2090600202015f015483610dcd9190614dcb565b92508180610dda90614dfe565b9250508080600101915050610d62565b505f5f90505b818460030180549050610e039190614e45565b811015610e7b57836003018282610e1a9190614dcb565b81548110610e2b57610e2a614d71565b5b905f5260205f209060020201846003018281548110610e4d57610e4c614d71565b5b905f5260205f2090600202015f820154815f0155600182015481600101559050508080600101915050610df0565b505f5f90505b81811015610ece5783600301805480610e9d57610e9c614e78565b5b600190038181905f5260205f2090600202015f5f82015f9055600182015f9055505090558080600101915050610e81565b505f821115610f8a575f73ffffffffffffffffffffffffffffffffffffffff16845f015f9054906101000a900473ffffffffffffffffffffffffffffffffffffffff1673ffffffffffffffffffffffffffffffffffffffff1603610f3b57610f3633836131cb565b610f89565b610f883383865f015f9054906101000a900473ffffffffffffffffffffffffffffffffffffffff1673ffffffffffffffffffffffffffffffffffffffff166131d99092919063ffffffff16565b5b5b43863373ffffffffffffffffffffffffffffffffffffffff167f02f25270a4d87bea75db541cdfe559334a275b4a233520ed6c0a2429667cca9485604051610fd291906144dc565b60405180910390a4505050505050565b610feb82610c27565b610ff481613258565b610ffe838361326c565b50505050565b600360019054906101000a900460ff1681565b61101f613364565b73ffffffffffffffffffffffffffffffffffffffff168173ffffffffffffffffffffffffffffffffffffffff1614611083576040517f6697b23200000000000000000000000000000000000000000000000000000000815260040160405180910390fd5b61108d828261336b565b505050565b6006602052815f5260405f20602052805f5260405f205f9150915050805f0154908060010154908060020154905083565b80600580549050811061110b576040517f08c379a000000000000000000000000000000000000000000000000000000000815260040161110290614ceb565b60405180910390fd5b600360029054906101000a900460ff161561115b576040517f08c379a000000000000000000000000000000000000000000000000000000000815260040161115290614eef565b60405180910390fd5b5f600583815481106111705761116f614d71565b5b905f5260205f20906007020190505f60065f8581526020019081526020015f205f3373ffffffffffffffffffffffffffffffffffffffff1673ffffffffffffffffffffffffffffffffffffffff1681526020019081526020015f2090506111d684611602565b5f81600201548260010154670de0b6b3a76400008560030154855f01546111fd9190614f0d565b6112079190614f7b565b6112119190614e45565b61121b9190614dcb565b90505f811115611239575f82600201819055506112383382613463565b5b670de0b6b3a76400008360030154835f01546112559190614f0d565b61125f9190614f7b565b8260010181905550843373ffffffffffffffffffffffffffffffffffffffff167f34fcbac0073d7c3d388e51312faf357774904998eeb8fca628b9e6f65ee1cbf7836040516112ae91906144dc565b60405180910390a35050505050565b5f5481565b5f6112cb613649565b90505f815f0160089054906101000a900460ff161590505f825f015f9054906101000a900467ffffffffffffffff1690505f5f8267ffffffffffffffff161480156113135750825b90505f60018367ffffffffffffffff1614801561134657505f3073ffffffffffffffffffffffffffffffffffffffff163b145b905081158015611354575080155b1561138b576040517ff92ee8a900000000000000000000000000000000000000000000000000000000815260040160405180910390fd5b6001855f015f6101000a81548167ffffffffffffffff021916908367ffffffffffffffff16021790555083156113d8576001855f0160086101000a81548160ff0219169083151502179055505b8688111580156113e757505f86115b611426576040517f08c379a000000000000000000000000000000000000000000000000000000000815260040161141d90614ff5565b60405180910390fd5b61142e61365c565b611436613666565b61143e613670565b61144a5f5f1b3361326c565b506114757fcab03bc4dbcc648cd59d6bbe9f848d1e9092f914016aa290ee92e18700d1e6f93361326c565b506114a07f589d473ba17c0f47d494622893831497bad25919b9afb8e33e9521b8963fccde3361326c565b506114aa89611a82565b875f8190555086600181905550856002819055508315611518575f855f0160086101000a81548160ff0219169083151502179055507fc7f505b2f371ae2175ee4913f4499e1f2633a7b5936321eed1cdaeb6115181d2600160405161150f919061505f565b60405180910390a15b505050505050505050565b61152b613682565b61153482613768565b61153e8282613796565b5050565b7f589d473ba17c0f47d494622893831497bad25919b9afb8e33e9521b8963fccde61156c81613258565b60035f9054906101000a900460ff166115ba576040517f08c379a00000000000000000000000000000000000000000000000000000000081526004016115b1906150e8565b60405180910390fd5b5f60035f6101000a81548160ff0219169083151502179055507f0168f07e5c770adf011f4d014f5350bbb70a4734027bdbaa3331f829e53a565760405160405180910390a150565b80600580549050811061164a576040517f08c379a000000000000000000000000000000000000000000000000000000000815260040161164190614ceb565b60405180910390fd5b5f6005838154811061165f5761165e614d71565b5b905f5260205f20906007020190508060020154431161167e57506118c7565b5f5f6116a48360010154611696856002015443611dfa565b6138b490919063ffffffff16565b91509150816116e8576040517f08c379a00000000000000000000000000000000000000000000000000000000081526004016116df90615150565b60405180910390fd5b6116fd600454826138db90919063ffffffff16565b809250819350505081611745576040517f08c379a000000000000000000000000000000000000000000000000000000000815260040161173c90615150565b60405180910390fd5b5f836004015490505f81111561187c575f5f611772670de0b6b3a7640000856138b490919063ffffffff16565b91509150816117b6576040517f08c379a00000000000000000000000000000000000000000000000000000000081526004016117ad90615150565b60405180910390fd5b6117c983826138db90919063ffffffff16565b809250819350505081611811576040517f08c379a000000000000000000000000000000000000000000000000000000000815260040161180890615150565b60405180910390fd5b5f5f61182a8389600301546138ee90919063ffffffff16565b915091508161186e576040517f08c379a000000000000000000000000000000000000000000000000000000000815260040161186590615150565b60405180910390fd5b808860030181905550505050505b4384600201819055508360020154867ff5d2d72d9b25d6853afd7d0554a113b705234b6a68bb36b7f143662994632411846040516118ba91906144dc565b60405180910390a3505050505b5050565b5f6118d4613911565b7f360894a13ba1a3210667c828492db98dca3e2076cc3735a920a3ca505d382bbc5f1b905090565b7f589d473ba17c0f47d494622893831497bad25919b9afb8e33e9521b8963fccde61192681613258565b600360019054906101000a900460ff16611975576040517f08c379a000000000000000000000000000000000000000000000000000000000815260040161196c906151de565b60405180910390fd5b5f600360016101000a81548160ff0219169083151502179055507f1c84bcaead48b692cc46b9b12e9a068951a59c99a2e2bf10b00b60b403cf12e260405160405180910390a150565b7f589d473ba17c0f47d494622893831497bad25919b9afb8e33e9521b8963fccde6119e881613258565b600360019054906101000a900460ff1615611a38576040517f08c379a0000000000000000000000000000000000000000000000000000000008152600401611a2f90615246565b60405180910390fd5b6001600360016101000a81548160ff0219169083151502179055507f8099f593a6aaecd68b6494933cd71f703376ac3975be83692e1b7d800abf683760405160405180910390a150565b7f589d473ba17c0f47d494622893831497bad25919b9afb8e33e9521b8963fccde611aac81613258565b816003806101000a81548173ffffffffffffffffffffffffffffffffffffffff021916908373ffffffffffffffffffffffffffffffffffffffff16021790555060038054906101000a900473ffffffffffffffffffffffffffffffffffffffff1673ffffffffffffffffffffffffffffffffffffffff167fafef10ff40345dd21fc1cac02d8ec620a709c9b0983e9c6454d2bef77f077df360405160405180910390a25050565b5f60058054905090505f5f90505b81811015611b7f57611b7281611602565b8080600101915050611b61565b5050565b5f836005805490508110611bcc576040517f08c379a0000000000000000000000000000000000000000000000000000000008152600401611bc390614ceb565b60405180910390fd5b5f60058681548110611be157611be0614d71565b5b905f5260205f20906007020190505f60065f8881526020019081526020015f205f8773ffffffffffffffffffffffffffffffffffffffff1673ffffffffffffffffffffffffffffffffffffffff1681526020019081526020015f2090505f826003015490505f83600401549050836002015487118015611c6157505f8114155b15611cc6575f611c75856002015489611dfa565b90505f600454866001015483611c8b9190614f0d565b611c959190614f7b565b905082670de0b6b3a764000082611cac9190614f0d565b611cb69190614f7b565b84611cc19190614dcb565b935050505b82600201548360010154670de0b6b3a764000084865f0154611ce89190614f0d565b611cf29190614f7b565b611cfc9190614e45565b611d069190614dcb565b955050505050509392505050565b7f589d473ba17c0f47d494622893831497bad25919b9afb8e33e9521b8963fccde611d3e81613258565b60035f9054906101000a900460ff1615611d8d576040517f08c379a0000000000000000000000000000000000000000000000000000000008152600401611d84906152ae565b60405180910390fd5b600160035f6101000a81548160ff0219169083151502179055507f0f933486a87a0ea07c4b9f8e795ed8b8e6a118792e5791f758128c4c4add73ee60405160405180910390a150565b7f589d473ba17c0f47d494622893831497bad25919b9afb8e33e9521b8963fccde81565b5f81831115611e3e576040517f08c379a0000000000000000000000000000000000000000000000000000000008152600401611e3590615316565b60405180910390fd5b5f54831015611e4c575f5492505b600154821115611e5c5760015491505b81831115611e9f576040517f08c379a0000000000000000000000000000000000000000000000000000000008152600401611e96906153a4565b60405180910390fd5b5f611ec06002548585611eb29190614e45565b6138b490919063ffffffff16565b809350819250505080611f08576040517f08c379a0000000000000000000000000000000000000000000000000000000008152600401611eff9061540c565b60405180910390fd5b5092915050565b7f589d473ba17c0f47d494622893831497bad25919b9afb8e33e9521b8963fccde611f3981613258565b600360029054906101000a900460ff1615611f89576040517f08c379a0000000000000000000000000000000000000000000000000000000008152600401611f8090615474565b60405180910390fd5b6001600360026101000a81548160ff0219169083151502179055507f6d73d6b34c378ab3bf6630206d60b7882801b91d03ee20d016ff0d5054db81e160405160405180910390a150565b5f5f611fdd6131a4565b9050805f015f8581526020019081526020015f205f015f8473ffffffffffffffffffffffffffffffffffffffff1673ffffffffffffffffffffffffffffffffffffffff1681526020019081526020015f205f9054906101000a900460ff1691505092915050565b81600580549050811061208c576040517f08c379a000000000000000000000000000000000000000000000000000000000815260040161208390614ceb565b60405180910390fd5b600360019054906101000a900460ff16156120dc576040517f08c379a00000000000000000000000000000000000000000000000000000000081526004016120d390614d53565b60405180910390fd5b5f600584815481106120f1576120f0614d71565b5b905f5260205f20906007020190505f60065f8681526020019081526020015f205f3373ffffffffffffffffffffffffffffffffffffffff1673ffffffffffffffffffffffffffffffffffffffff1681526020019081526020015f20905083815f01541015612194576040517f08c379a000000000000000000000000000000000000000000000000000000000815260040161218b906154dc565b60405180910390fd5b61219d85611602565b5f8160010154670de0b6b3a76400008460030154845f01546121bf9190614f0d565b6121c99190614f7b565b6121d39190614e45565b90505f8111156121f6578082600201546121ed9190614dcb565b82600201819055505b5f8511156122775784825f015461220d9190614e45565b825f01819055508160030160405180604001604052808781526020018560060154436122399190614dcb565b815250908060018154018082558091505060019003905f5260205f2090600202015f909190919091505f820151815f01556020820151816001015550505b8483600401546122879190614e45565b8360040181905550670de0b6b3a76400008360030154835f01546122ab9190614f0d565b6122b59190614f7b565b8260010181905550853373ffffffffffffffffffffffffffffffffffffffff167fc80277265097707f6f12a4ac4c09d46c9926e2eea2536f63616cb04d9fcad7d68760405161230491906144dc565b60405180910390a3505050505050565b60025481565b5f5f1b81565b600360029054906101000a900460ff1681565b6040518060400160405280600581526020017f352e302e3000000000000000000000000000000000000000000000000000000081525081565b7f589d473ba17c0f47d494622893831497bad25919b9afb8e33e9521b8963fccde61239681613258565b5f6005805490501115612416575f73ffffffffffffffffffffffffffffffffffffffff168673ffffffffffffffffffffffffffffffffffffffff1603612411576040517f08c379a000000000000000000000000000000000000000000000000000000000815260040161240890615544565b60405180910390fd5b612485565b5f73ffffffffffffffffffffffffffffffffffffffff168673ffffffffffffffffffffffffffffffffffffffff1614612484576040517f08c379a000000000000000000000000000000000000000000000000000000000815260040161247b90615544565b60405180910390fd5b5b5f83116124c7576040517f08c379a00000000000000000000000000000000000000000000000000000000081526004016124be906155ac565b60405180910390fd5b600154431061250b576040517f08c379a000000000000000000000000000000000000000000000000000000000815260040161250290615614565b60405180910390fd5b811561251a57612519611b53565b5b5f5f54431161252a575f5461252c565b435b90508560045461253c9190614dcb565b60048190555060056040518060e001604052808973ffffffffffffffffffffffffffffffffffffffff1681526020018881526020018381526020015f81526020015f815260200187815260200186815250908060018154018082558091505060019003905f5260205f2090600702015f909190919091505f820151815f015f6101000a81548173ffffffffffffffffffffffffffffffffffffffff021916908373ffffffffffffffffffffffffffffffffffffffff1602179055506020820151816001015560408201518160020155606082015181600301556080820151816004015560a0820151816005015560c08201518160060155505080868873ffffffffffffffffffffffffffffffffffffffff167f0fa296fce13e7a0e622b3a892e66220c248337289483a3cfa4130cde0caa1346888860405161267f929190614c7a565b60405180910390a450505050505050565b7fcab03bc4dbcc648cd59d6bbe9f848d1e9092f914016aa290ee92e18700d1e6f981565b5f81565b7f589d473ba17c0f47d494622893831497bad25919b9afb8e33e9521b8963fccde6126e281613258565b815f541115612726576040517f08c379a000000000000000000000000000000000000000000000000000000000815260040161271d906156a2565b60405180910390fd5b81600181905550817f1132c5baccb51da3d049fabc819697dc845fa224ad59d9b555507d6446b4085060405160405180910390a25050565b60038054906101000a900473ffffffffffffffffffffffffffffffffffffffff1681565b61278b82610c27565b61279481613258565b61279e838361336b565b50505050565b7f589d473ba17c0f47d494622893831497bad25919b9afb8e33e9521b8963fccde6127ce81613258565b5f8211612810576040517f08c379a00000000000000000000000000000000000000000000000000000000081526004016128079061570a565b60405180910390fd5b81600281905550817fa0b1720fac15ab5b6e184fa4d22f43e0e2594ae0373a61a3fc48aefb84ab92f760405160405180910390a25050565b7f589d473ba17c0f47d494622893831497bad25919b9afb8e33e9521b8963fccde61287281613258565b8360058054905081106128ba576040517f08c379a00000000000000000000000000000000000000000000000000000000081526004016128b190614ceb565b60405180910390fd5b83600586815481106128cf576128ce614d71565b5b905f5260205f2090600702016005018190555082600586815481106128f7576128f6614d71565b5b905f5260205f209060070201600601819055508284867f30dffdedaa3e3b4849298233f7cd71d229956e875ab09270498c96b7cf9181fd60405160405180910390a45050505050565b7f589d473ba17c0f47d494622893831497bad25919b9afb8e33e9521b8963fccde61296a81613258565b600360029054906101000a900460ff166129b9576040517f08c379a00000000000000000000000000000000000000000000000000000000081526004016129b090615772565b60405180910390fd5b5f600360026101000a81548160ff0219169083151502179055507fe72cb12952f056e3e7496019725f20a13108ca420f67f1ee9c9cdab73fb8ce8560405160405180910390a150565b60035f9054906101000a900460ff1615612a51576040517f08c379a0000000000000000000000000000000000000000000000000000000008152600401612a48906157da565b60405180910390fd5b816005805490508110612a99576040517f08c379a0000000000000000000000000000000000000000000000000000000008152600401612a9090614ceb565b60405180910390fd5b5f8303612adb576040517f08c379a0000000000000000000000000000000000000000000000000000000008152600401612ad290615842565b60405180910390fd5b5f60058481548110612af057612aef614d71565b5b905f5260205f20906007020190508060050154831015612b45576040517f08c379a0000000000000000000000000000000000000000000000000000000008152600401612b3c906158aa565b60405180910390fd5b5f831115612b9d57612b9c333085845f015f9054906101000a900473ffffffffffffffffffffffffffffffffffffffff1673ffffffffffffffffffffffffffffffffffffffff16613998909392919063ffffffff16565b5b612ba78484613a1a565b50505050565b5f826005805490508110612bf6576040517f08c379a0000000000000000000000000000000000000000000000000000000008152600401612bed90614ceb565b60405180910390fd5b612c01848443611b83565b91505092915050565b7f589d473ba17c0f47d494622893831497bad25919b9afb8e33e9521b8963fccde612c3481613258565b600154821115612c79576040517f08c379a0000000000000000000000000000000000000000000000000000000008152600401612c70906156a2565b60405180910390fd5b815f81905550817f63b90b79f11a0f132bcb2c4a4ddd44abda45c1308a83b2919318df7f5f8b7be460405160405180910390a25050565b60035f9054906101000a900460ff1615612cff576040517f08c379a0000000000000000000000000000000000000000000000000000000008152600401612cf6906157da565b60405180910390fd5b5f60055f81548110612d1457612d13614d71565b5b905f5260205f20906007020190505f73ffffffffffffffffffffffffffffffffffffffff16815f015f9054906101000a900473ffffffffffffffffffffffffffffffffffffffff1673ffffffffffffffffffffffffffffffffffffffff1614612db2576040517f08c379a0000000000000000000000000000000000000000000000000000000008152600401612da990615544565b60405180910390fd5b5f3490508160050154811015612dfd576040517f08c379a0000000000000000000000000000000000000000000000000000000008152600401612df4906158aa565b60405180910390fd5b612e075f82613a1a565b5050565b7f589d473ba17c0f47d494622893831497bad25919b9afb8e33e9521b8963fccde612e3581613258565b836005805490508110612e7d576040517f08c379a0000000000000000000000000000000000000000000000000000000008152600401612e7490614ceb565b60405180910390fd5b5f8411612ebf576040517f08c379a0000000000000000000000000000000000000000000000000000000008152600401612eb690615912565b60405180910390fd5b8215612ece57612ecd611b53565b5b8360058681548110612ee357612ee2614d71565b5b905f5260205f20906007020160010154600454612f009190614e45565b612f0a9190614dcb565b6004819055508360058681548110612f2557612f24614d71565b5b905f5260205f2090600702016001018190555083857f4b8fa3d6a87cb21d1bf4978bf60628ae358a28ac7f39de1751a481c6dd957617600454604051612f6b91906144dc565b60405180910390a35050505050565b60058181548110612f89575f80fd5b905f5260205f2090600702015f91509050805f015f9054906101000a900473ffffffffffffffffffffffffffffffffffffffff16908060010154908060020154908060030154908060040154908060050154908060060154905087565b5f5f836005805490508110613030576040517f08c379a000000000000000000000000000000000000000000000000000000000815260040161302790614ceb565b60405180910390fd5b5f60065f8781526020019081526020015f205f8673ffffffffffffffffffffffffffffffffffffffff1673ffffffffffffffffffffffffffffffffffffffff1681526020019081526020015f2090505f5f90505b816003018054905081101561313157438260030182815481106130aa576130a9614d71565b5b905f5260205f20906002020160010154116130f2578160030181815481106130d5576130d4614d71565b5b905f5260205f2090600202015f0154846130ef9190614dcb565b93505b81600301818154811061310857613107614d71565b5b905f5260205f2090600202015f0154856131229190614dcb565b94508080600101915050613084565b5050509250929050565b5f7f01ffc9a7000000000000000000000000000000000000000000000000000000007bffffffffffffffffffffffffffffffffffffffffffffffffffffffff1916827bffffffffffffffffffffffffffffffffffffffffffffffffffffffff1916149050919050565b5f7f02dd7bc7dec4dceedda775e58dd541e08a116c6c53815c0bd028192f7b626800905090565b6131d58282613e30565b5050565b613253838473ffffffffffffffffffffffffffffffffffffffff1663a9059cbb858560405160240161320c929190615930565b604051602081830303815290604052915060e01b6020820180517bffffffffffffffffffffffffffffffffffffffffffffffffffffffff8381831617835250505050613ef6565b505050565b61326981613264613364565b613f91565b50565b5f5f6132766131a4565b90506132828484611fd3565b613359576001815f015f8681526020019081526020015f205f015f8573ffffffffffffffffffffffffffffffffffffffff1673ffffffffffffffffffffffffffffffffffffffff1681526020019081526020015f205f6101000a81548160ff0219169083151502179055506132f5613364565b73ffffffffffffffffffffffffffffffffffffffff168373ffffffffffffffffffffffffffffffffffffffff16857f2f8788117e7eff1d82e926ec794901d17c78024a50270940304540a733656f0d60405160405180910390a4600191505061335e565b5f9150505b92915050565b5f33905090565b5f5f6133756131a4565b90506133818484611fd3565b15613458575f815f015f8681526020019081526020015f205f015f8573ffffffffffffffffffffffffffffffffffffffff1673ffffffffffffffffffffffffffffffffffffffff1681526020019081526020015f205f6101000a81548160ff0219169083151502179055506133f4613364565b73ffffffffffffffffffffffffffffffffffffffff168373ffffffffffffffffffffffffffffffffffffffff16857ff6391f5c32d9c69d2a47ea670b442974b53935d1edc7fd64eb21e047a839171b60405160405180910390a4600191505061345d565b5f9150505b92915050565b5f60038054906101000a900473ffffffffffffffffffffffffffffffffffffffff1673ffffffffffffffffffffffffffffffffffffffff166370a08231306040518263ffffffff1660e01b81526004016134bd9190615957565b602060405180830381865afa1580156134d8573d5f5f3e3d5ffd5b505050506040513d601f19601f820116820180604052508101906134fc9190615984565b9050808211156135a75760038054906101000a900473ffffffffffffffffffffffffffffffffffffffff1673ffffffffffffffffffffffffffffffffffffffff1663a9059cbb84836040518363ffffffff1660e01b8152600401613561929190615930565b6020604051808303815f875af115801561357d573d5f5f3e3d5ffd5b505050506040513d601f19601f820116820180604052508101906135a191906159c3565b50613644565b60038054906101000a900473ffffffffffffffffffffffffffffffffffffffff1673ffffffffffffffffffffffffffffffffffffffff1663a9059cbb84846040518363ffffffff1660e01b8152600401613602929190615930565b6020604051808303815f875af115801561361e573d5f5f3e3d5ffd5b505050506040513d601f19601f8201168201806040525081019061364291906159c3565b505b505050565b5f5f613653613fe2565b90508091505090565b61366461400b565b565b61366e61400b565b565b61367861400b565b61368061404b565b565b7f000000000000000000000000000000000000000000000000000000000000000073ffffffffffffffffffffffffffffffffffffffff163073ffffffffffffffffffffffffffffffffffffffff16148061372f57507f000000000000000000000000000000000000000000000000000000000000000073ffffffffffffffffffffffffffffffffffffffff1661371661406a565b73ffffffffffffffffffffffffffffffffffffffff1614155b15613766576040517fe07c8dba00000000000000000000000000000000000000000000000000000000815260040160405180910390fd5b565b7fcab03bc4dbcc648cd59d6bbe9f848d1e9092f914016aa290ee92e18700d1e6f961379281613258565b5050565b8173ffffffffffffffffffffffffffffffffffffffff166352d1902d6040518163ffffffff1660e01b8152600401602060405180830381865afa9250505080156137fe57506040513d601f19601f820116820180604052508101906137fb9190615a02565b60015b61383f57816040517f4c9c8ce30000000000000000000000000000000000000000000000000000000081526004016138369190615957565b60405180910390fd5b7f360894a13ba1a3210667c828492db98dca3e2076cc3735a920a3ca505d382bbc5f1b81146138a557806040517faa1d49a400000000000000000000000000000000000000000000000000000000815260040161389c9190614624565b60405180910390fd5b6138af83836140bd565b505050565b5f5f5f8385029050841584868304141792506138cf8361412f565b81029150509250929050565b5f5f5f8311915082840490509250929050565b5f5f5f83850190508481101592506139058361412f565b81029150509250929050565b7f000000000000000000000000000000000000000000000000000000000000000073ffffffffffffffffffffffffffffffffffffffff163073ffffffffffffffffffffffffffffffffffffffff1614613996576040517fe07c8dba00000000000000000000000000000000000000000000000000000000815260040160405180910390fd5b565b613a14848573ffffffffffffffffffffffffffffffffffffffff166323b872dd8686866040516024016139cd93929190615a2d565b604051602081830303815290604052915060e01b6020820180517bffffffffffffffffffffffffffffffffffffffffffffffffffffffff8381831617835250505050613ef6565b50505050565b5f60058381548110613a2f57613a2e614d71565b5b905f5260205f20906007020190505f60065f8581526020019081526020015f205f3373ffffffffffffffffffffffffffffffffffffffff1673ffffffffffffffffffffffffffffffffffffffff1681526020019081526020015f209050613a9584611602565b5f815f01541115613c36575f5f613abc8460030154845f01546138b490919063ffffffff16565b9150915081613b00576040517f08c379a0000000000000000000000000000000000000000000000000000000008152600401613af790615ad2565b60405180910390fd5b613b1b670de0b6b3a7640000826138db90919063ffffffff16565b809250819350505081613b63576040517f08c379a0000000000000000000000000000000000000000000000000000000008152600401613b5a90615b3a565b60405180910390fd5b5f5f613b7c85600101548461413a90919063ffffffff16565b9150915081613bc0576040517f08c379a0000000000000000000000000000000000000000000000000000000008152600401613bb790615bc8565b60405180910390fd5b5f811115613c31575f5f613be18388600201546138ee90919063ffffffff16565b9150915081613c25576040517f08c379a0000000000000000000000000000000000000000000000000000000008152600401613c1c90615c30565b60405180910390fd5b80876002018190555050505b505050505b5f831115613ca5575f5f613c5685845f01546138ee90919063ffffffff16565b9150915081613c9a576040517f08c379a0000000000000000000000000000000000000000000000000000000008152600401613c9190615c98565b60405180910390fd5b80835f018190555050505b5f5f613cbe8585600401546138ee90919063ffffffff16565b9150915081613d02576040517f08c379a0000000000000000000000000000000000000000000000000000000008152600401613cf990615d00565b60405180910390fd5b8084600401819055505f5f613d278660030154865f01546138b490919063ffffffff16565b9150915081613d6b576040517f08c379a0000000000000000000000000000000000000000000000000000000008152600401613d6290615ad2565b60405180910390fd5b613d86670de0b6b3a7640000826138db90919063ffffffff16565b809250819350505081613dce576040517f08c379a0000000000000000000000000000000000000000000000000000000008152600401613dc590615d8e565b60405180910390fd5b808560010181905550873373ffffffffffffffffffffffffffffffffffffffff167f90890809c654f11d6e72a28fa60149770a0d11ec6c92319d6ceb2bb0a4ea1a1589604051613e1e91906144dc565b60405180910390a35050505050505050565b80471015613e775747816040517fcf479181000000000000000000000000000000000000000000000000000000008152600401613e6e929190614c7a565b60405180910390fd5b5f5f8373ffffffffffffffffffffffffffffffffffffffff1683604051613e9d90615dd9565b5f6040518083038185875af1925050503d805f8114613ed7576040519150601f19603f3d011682016040523d82523d5f602084013e613edc565b606091505b509150915081613ef057613eef8161415d565b5b50505050565b5f5f60205f8451602086015f885af180613f15576040513d5f823e3d81fd5b3d92505f519150505f8214613f2e576001811415613f49565b5f8473ffffffffffffffffffffffffffffffffffffffff163b145b15613f8b57836040517f5274afe7000000000000000000000000000000000000000000000000000000008152600401613f829190615957565b60405180910390fd5b50505050565b613f9b8282611fd3565b613fde5780826040517fe2517d3f000000000000000000000000000000000000000000000000000000008152600401613fd5929190615ded565b60405180910390fd5b5050565b5f7ff0c57e16840df040f15088dc2f81fe391c3923bec73e23a9662efc9c229c6a005f1b905090565b6140136141a0565b614049576040517fd7e6bcf800000000000000000000000000000000000000000000000000000000815260040160405180910390fd5b565b61405361400b565b5f61405c6141be565b90506001815f018190555050565b5f6140967f360894a13ba1a3210667c828492db98dca3e2076cc3735a920a3ca505d382bbc5f1b6141e5565b5f015f9054906101000a900473ffffffffffffffffffffffffffffffffffffffff16905090565b6140c6826141ee565b8173ffffffffffffffffffffffffffffffffffffffff167fbc7cd75a20ee27fd9adebab32041f755214dbc6bffa90cc0225b39da2e5c2d3b60405160405180910390a25f815111156141225761411c82826142b7565b5061412b565b61412a614337565b5b5050565b5f8115159050919050565b5f5f5f83850390508481111592506141518361412f565b81029150509250929050565b5f8151111561416e57805160208201fd5b6040517fd6bda27500000000000000000000000000000000000000000000000000000000815260040160405180910390fd5b5f6141a9613649565b5f0160089054906101000a900460ff16905090565b5f7f9b779b17422d0df92223018b32b4d1fa46e071723d6817e2486d003becc55f00905090565b5f819050919050565b5f8173ffffffffffffffffffffffffffffffffffffffff163b0361424957806040517f4c9c8ce30000000000000000000000000000000000000000000000000000000081526004016142409190615957565b60405180910390fd5b806142757f360894a13ba1a3210667c828492db98dca3e2076cc3735a920a3ca505d382bbc5f1b6141e5565b5f015f6101000a81548173ffffffffffffffffffffffffffffffffffffffff021916908373ffffffffffffffffffffffffffffffffffffffff16021790555050565b60605f5f8473ffffffffffffffffffffffffffffffffffffffff16846040516142e09190615e4e565b5f60405180830381855af49150503d805f8114614318576040519150601f19603f3d011682016040523d82523d5f602084013e61431d565b606091505b509150915061432d858383614373565b9250505092915050565b5f341115614371576040517fb398979f00000000000000000000000000000000000000000000000000000000815260040160405180910390fd5b565b606082614388576143838261415d565b6143f8565b5f82511480156143ae57505f8473ffffffffffffffffffffffffffffffffffffffff163b145b156143f057836040517f9996b3150000000000000000000000000000000000000000000000000000000081526004016143e79190615957565b60405180910390fd5b8190506143f9565b5b9392505050565b5f604051905090565b5f5ffd5b5f5ffd5b5f7fffffffff0000000000000000000000000000000000000000000000000000000082169050919050565b61444581614411565b811461444f575f5ffd5b50565b5f813590506144608161443c565b92915050565b5f6020828403121561447b5761447a614409565b5b5f61448884828501614452565b91505092915050565b5f8115159050919050565b6144a581614491565b82525050565b5f6020820190506144be5f83018461449c565b92915050565b5f819050919050565b6144d6816144c4565b82525050565b5f6020820190506144ef5f8301846144cd565b92915050565b6144fe816144c4565b8114614508575f5ffd5b50565b5f81359050614519816144f5565b92915050565b5f73ffffffffffffffffffffffffffffffffffffffff82169050919050565b5f6145488261451f565b9050919050565b6145588161453e565b8114614562575f5ffd5b50565b5f813590506145738161454f565b92915050565b5f5f6040838503121561458f5761458e614409565b5b5f61459c8582860161450b565b92505060206145ad85828601614565565b9150509250929050565b5f819050919050565b6145c9816145b7565b81146145d3575f5ffd5b50565b5f813590506145e4816145c0565b92915050565b5f602082840312156145ff576145fe614409565b5b5f61460c848285016145d6565b91505092915050565b61461e816145b7565b82525050565b5f6020820190506146375f830184614615565b92915050565b5f6020828403121561465257614651614409565b5b5f61465f8482850161450b565b91505092915050565b5f5f6040838503121561467e5761467d614409565b5b5f61468b858286016145d6565b925050602061469c85828601614565565b9150509250929050565b5f6060820190506146b95f8301866144cd565b6146c660208301856144cd565b6146d360408301846144cd565b949350505050565b5f6146e58261453e565b9050919050565b6146f5816146db565b81146146ff575f5ffd5b50565b5f81359050614710816146ec565b92915050565b5f5f5f5f6080858703121561472e5761472d614409565b5b5f61473b87828801614702565b945050602061474c8782880161450b565b935050604061475d8782880161450b565b925050606061476e8782880161450b565b91505092959194509250565b5f5ffd5b5f5ffd5b5f601f19601f8301169050919050565b7f4e487b71000000000000000000000000000000000000000000000000000000005f52604160045260245ffd5b6147c882614782565b810181811067ffffffffffffffff821117156147e7576147e6614792565b5b80604052505050565b5f6147f9614400565b905061480582826147bf565b919050565b5f67ffffffffffffffff82111561482457614823614792565b5b61482d82614782565b9050602081019050919050565b828183375f83830152505050565b5f61485a6148558461480a565b6147f0565b9050828152602081018484840111156148765761487561477e565b5b61488184828561483a565b509392505050565b5f82601f83011261489d5761489c61477a565b5b81356148ad848260208601614848565b91505092915050565b5f5f604083850312156148cc576148cb614409565b5b5f6148d985828601614565565b925050602083013567ffffffffffffffff8111156148fa576148f961440d565b5b61490685828601614889565b9150509250929050565b5f6020828403121561492557614924614409565b5b5f61493284828501614702565b91505092915050565b5f5f5f6060848603121561495257614951614409565b5b5f61495f8682870161450b565b935050602061497086828701614565565b92505060406149818682870161450b565b9150509250925092565b5f5f604083850312156149a1576149a0614409565b5b5f6149ae8582860161450b565b92505060206149bf8582860161450b565b9150509250929050565b5f81519050919050565b5f82825260208201905092915050565b8281835e5f83830152505050565b5f6149fb826149c9565b614a0581856149d3565b9350614a158185602086016149e3565b614a1e81614782565b840191505092915050565b5f6020820190508181035f830152614a4181846149f1565b905092915050565b614a5281614491565b8114614a5c575f5ffd5b50565b5f81359050614a6d81614a49565b92915050565b5f5f5f5f5f60a08688031215614a8c57614a8b614409565b5b5f614a9988828901614565565b9550506020614aaa8882890161450b565b9450506040614abb8882890161450b565b9350506060614acc8882890161450b565b9250506080614add88828901614a5f565b9150509295509295909350565b5f819050919050565b5f614b0d614b08614b038461451f565b614aea565b61451f565b9050919050565b5f614b1e82614af3565b9050919050565b5f614b2f82614b14565b9050919050565b614b3f81614b25565b82525050565b5f602082019050614b585f830184614b36565b92915050565b5f5f5f60608486031215614b7557614b74614409565b5b5f614b828682870161450b565b9350506020614b938682870161450b565b9250506040614ba48682870161450b565b9150509250925092565b5f5f5f60608486031215614bc557614bc4614409565b5b5f614bd28682870161450b565b9350506020614be38682870161450b565b9250506040614bf486828701614a5f565b9150509250925092565b614c078161453e565b82525050565b5f60e082019050614c205f83018a614bfe565b614c2d60208301896144cd565b614c3a60408301886144cd565b614c4760608301876144cd565b614c5460808301866144cd565b614c6160a08301856144cd565b614c6e60c08301846144cd565b98975050505050505050565b5f604082019050614c8d5f8301856144cd565b614c9a60208301846144cd565b9392505050565b7f696e76616c6964207069640000000000000000000000000000000000000000005f82015250565b5f614cd5600b836149d3565b9150614ce082614ca1565b602082019050919050565b5f6020820190508181035f830152614d0281614cc9565b9050919050565b7f77697468647261772069732070617573656400000000000000000000000000005f82015250565b5f614d3d6012836149d3565b9150614d4882614d09565b602082019050919050565b5f6020820190508181035f830152614d6a81614d31565b9050919050565b7f4e487b71000000000000000000000000000000000000000000000000000000005f52603260045260245ffd5b7f4e487b71000000000000000000000000000000000000000000000000000000005f52601160045260245ffd5b5f614dd5826144c4565b9150614de0836144c4565b9250828201905080821115614df857614df7614d9e565b5b92915050565b5f614e08826144c4565b91507fffffffffffffffffffffffffffffffffffffffffffffffffffffffffffffffff8203614e3a57614e39614d9e565b5b600182019050919050565b5f614e4f826144c4565b9150614e5a836144c4565b9250828203905081811115614e7257614e71614d9e565b5b92915050565b7f4e487b71000000000000000000000000000000000000000000000000000000005f52603160045260245ffd5b7f636c61696d2069732070617573656400000000000000000000000000000000005f82015250565b5f614ed9600f836149d3565b9150614ee482614ea5565b602082019050919050565b5f6020820190508181035f830152614f0681614ecd565b9050919050565b5f614f17826144c4565b9150614f22836144c4565b9250828202614f30816144c4565b91508282048414831517614f4757614f46614d9e565b5b5092915050565b7f4e487b71000000000000000000000000000000000000000000000000000000005f52601260045260245ffd5b5f614f85826144c4565b9150614f90836144c4565b925082614fa057614f9f614f4e565b5b828204905092915050565b7f696e76616c696420706172616d657465727300000000000000000000000000005f82015250565b5f614fdf6012836149d3565b9150614fea82614fab565b602082019050919050565b5f6020820190508181035f83015261500c81614fd3565b9050919050565b5f819050919050565b5f67ffffffffffffffff82169050919050565b5f61504961504461503f84615013565b614aea565b61501c565b9050919050565b6150598161502f565b82525050565b5f6020820190506150725f830184615050565b92915050565b7f6465706f73697420686173206265656e20616c726561647920756e70617573655f8201527f6400000000000000000000000000000000000000000000000000000000000000602082015250565b5f6150d26021836149d3565b91506150dd82615078565b604082019050919050565b5f6020820190508181035f8301526150ff816150c6565b9050919050565b7f6f766572666c6f770000000000000000000000000000000000000000000000005f82015250565b5f61513a6008836149d3565b915061514582615106565b602082019050919050565b5f6020820190508181035f8301526151678161512e565b9050919050565b7f776974686472617720686173206265656e20616c726561647920756e706175735f8201527f6564000000000000000000000000000000000000000000000000000000000000602082015250565b5f6151c86022836149d3565b91506151d38261516e565b604082019050919050565b5f6020820190508181035f8301526151f5816151bc565b9050919050565b7f776974686472617720686173206265656e20616c7265616479207061757365645f82015250565b5f6152306020836149d3565b915061523b826151fc565b602082019050919050565b5f6020820190508181035f83015261525d81615224565b9050919050565b7f6465706f73697420686173206265656e20616c726561647920706175736564005f82015250565b5f615298601f836149d3565b91506152a382615264565b602082019050919050565b5f6020820190508181035f8301526152c58161528c565b9050919050565b7f696e76616c696420626c6f636b000000000000000000000000000000000000005f82015250565b5f615300600d836149d3565b915061530b826152cc565b602082019050919050565b5f6020820190508181035f83015261532d816152f4565b9050919050565b7f656e6420626c6f636b206d7573742062652067726561746572207468616e20735f8201527f7461727420626c6f636b00000000000000000000000000000000000000000000602082015250565b5f61538e602a836149d3565b915061539982615334565b604082019050919050565b5f6020820190508181035f8301526153bb81615382565b9050919050565b7f6d756c7469706c696572206f766572666c6f77000000000000000000000000005f82015250565b5f6153f66013836149d3565b9150615401826153c2565b602082019050919050565b5f6020820190508181035f830152615423816153ea565b9050919050565b7f636c61696d20686173206265656e20616c7265616479207061757365640000005f82015250565b5f61545e601d836149d3565b91506154698261542a565b602082019050919050565b5f6020820190508181035f83015261548b81615452565b9050919050565b7f4e6f7420656e6f756768207374616b696e6720746f6b656e2062616c616e63655f82015250565b5f6154c66020836149d3565b91506154d182615492565b602082019050919050565b5f6020820190508181035f8301526154f3816154ba565b9050919050565b7f696e76616c6964207374616b696e6720746f6b656e20616464726573730000005f82015250565b5f61552e601d836149d3565b9150615539826154fa565b602082019050919050565b5f6020820190508181035f83015261555b81615522565b9050919050565b7f696e76616c6964207769746864726177206c6f636b656420626c6f636b7300005f82015250565b5f615596601e836149d3565b91506155a182615562565b602082019050919050565b5f6020820190508181035f8301526155c38161558a565b9050919050565b7f416c726561647920656e646564000000000000000000000000000000000000005f82015250565b5f6155fe600d836149d3565b9150615609826155ca565b602082019050919050565b5f6020820190508181035f83015261562b816155f2565b9050919050565b7f737461727420626c6f636b206d75737420626520736d616c6c6572207468616e5f8201527f20656e6420626c6f636b00000000000000000000000000000000000000000000602082015250565b5f61568c602a836149d3565b915061569782615632565b604082019050919050565b5f6020820190508181035f8301526156b981615680565b9050919050565b7f696e76616c696420706172616d657465720000000000000000000000000000005f82015250565b5f6156f46011836149d3565b91506156ff826156c0565b602082019050919050565b5f6020820190508181035f830152615721816156e8565b9050919050565b7f636c61696d20686173206265656e20616c726561647920756e706175736564005f82015250565b5f61575c601f836149d3565b915061576782615728565b602082019050919050565b5f6020820190508181035f83015261578981615750565b9050919050565b7f6465706f736974206973207061757365640000000000000000000000000000005f82015250565b5f6157c46011836149d3565b91506157cf82615790565b602082019050919050565b5f6020820190508181035f8301526157f1816157b8565b9050919050565b7f6465706f736974206e6f7420737570706f727420455448207374616b696e67005f82015250565b5f61582c601f836149d3565b9150615837826157f8565b602082019050919050565b5f6020820190508181035f83015261585981615820565b9050919050565b7f6465706f73697420616d6f756e7420697320746f6f20736d616c6c00000000005f82015250565b5f615894601b836149d3565b915061589f82615860565b602082019050919050565b5f6020820190508181035f8301526158c181615888565b9050919050565b7f696e76616c696420706f6f6c20776569676874000000000000000000000000005f82015250565b5f6158fc6013836149d3565b9150615907826158c8565b602082019050919050565b5f6020820190508181035f830152615929816158f0565b9050919050565b5f6040820190506159435f830185614bfe565b61595060208301846144cd565b9392505050565b5f60208201905061596a5f830184614bfe565b92915050565b5f8151905061597e816144f5565b92915050565b5f6020828403121561599957615998614409565b5b5f6159a684828501615970565b91505092915050565b5f815190506159bd81614a49565b92915050565b5f602082840312156159d8576159d7614409565b5b5f6159e5848285016159af565b91505092915050565b5f815190506159fc816145c0565b92915050565b5f60208284031215615a1757615a16614409565b5b5f615a24848285016159ee565b91505092915050565b5f606082019050615a405f830186614bfe565b615a4d6020830185614bfe565b615a5a60408301846144cd565b949350505050565b7f75736572207374416d6f756e74206d756c206163634d6574614e6f64655065725f8201527f5354206f766572666c6f77000000000000000000000000000000000000000000602082015250565b5f615abc602b836149d3565b9150615ac782615a62565b604082019050919050565b5f6020820190508181035f830152615ae981615ab0565b9050919050565b7f6163635354206469762031206574686572206f766572666c6f770000000000005f82015250565b5f615b24601a836149d3565b9150615b2f82615af0565b602082019050919050565b5f6020820190508181035f830152615b5181615b18565b9050919050565b7f6163635354207375622066696e69736865644d6574614e6f6465206f766572665f8201527f6c6f770000000000000000000000000000000000000000000000000000000000602082015250565b5f615bb26023836149d3565b9150615bbd82615b58565b604082019050919050565b5f6020820190508181035f830152615bdf81615ba6565b9050919050565b7f757365722070656e64696e674d6574614e6f6465206f766572666c6f770000005f82015250565b5f615c1a601d836149d3565b9150615c2582615be6565b602082019050919050565b5f6020820190508181035f830152615c4781615c0e565b9050919050565b7f75736572207374416d6f756e74206f766572666c6f77000000000000000000005f82015250565b5f615c826016836149d3565b9150615c8d82615c4e565b602082019050919050565b5f6020820190508181035f830152615caf81615c76565b9050919050565b7f706f6f6c207374546f6b656e416d6f756e74206f766572666c6f7700000000005f82015250565b5f615cea601b836149d3565b9150615cf582615cb6565b602082019050919050565b5f6020820190508181035f830152615d1781615cde565b9050919050565b7f66696e69736865644d6574614e6f6465206469762031206574686572206f76655f8201527f72666c6f77000000000000000000000000000000000000000000000000000000602082015250565b5f615d786025836149d3565b9150615d8382615d1e565b604082019050919050565b5f6020820190508181035f830152615da581615d6c565b9050919050565b5f81905092915050565b50565b5f615dc45f83615dac565b9150615dcf82615db6565b5f82019050919050565b5f615de382615db9565b9150819050919050565b5f604082019050615e005f830185614bfe565b615e0d6020830184614615565b9392505050565b5f81519050919050565b5f615e2882615e14565b615e328185615dac565b9350615e428185602086016149e3565b80840191505092915050565b5f615e598284615e1e565b91508190509291505056fea26469706673582212206d16baecb7c34a55eac695c8a50e07b0f7139b66bd914f0aa29f59dc5367ac1c64736f6c634300081c0033",
  "linkReferences": {},
  "deployedLinkReferences": {},
  "immutableReferences": {
    "652": [
      {
        "length": 32,
        "start": 13956
      },
      {
        "length": 32,
        "start": 14041
      },
      {
        "length": 32,
        "start": 14611
      }
    ]
  },
  "inputSourceName": "project/contracts/MetaNodeStake.sol",
  "buildInfoId": "solc-0_8_28-5b435279591c520d5e9e40a7d875729f9edf6cfc"
}