{
  "_format": "hh3-artifact-1",
  "contractName": "MetaNodeStakeV2",
  "sourceName": "contracts/MetaNodeStakeV2.sol",
  "abi": [
    {
      "inputs": [],
      "name": "AccessControlBadConfirmation",
      "type": "error"
    },
    {
      "inputs": [
        {
          "internalType": "address",
          "name": "account",
          "type": "address"
        },
        {
          "internalType": "bytes32",
          "name": "neededRole",
          "type": "bytes32"
        }
      ],
      "name": "AccessControlUnauthorizedAccount",
      "type": "error"
    },
    {
      "inputs": [
        {
          "internalType": "address",
          "name": "target",
          "type": "address"
        }
      ],
      "name": "AddressEmptyCode",
      "type": "error"
    },
    {
      "inputs": [
        {
          "internalType": "address",
          "name": "implementation",
          "type": "address"
        }
      ],
      "name": "ERC1967InvalidImplementation",
      "type": "error"
    },
    {
      "inputs": [],
      "name": "ERC1967NonPayable",
      "type": "error"
    },
    {
      "inputs": [],
      "name": "FailedCall",
      "type": "error"
    },
    {
      "inputs": [
        {
          "internalType": "uint256",
          "name": "balance",
          "type": "uint256"
        },
        {
          "internalType": "uint256",
          "name": "needed",
          "type": "uint256"
        }
      ],
      "name": "InsufficientBalance",
      "type": "error"
    },
    {
      "inputs": [],
      "name": "InvalidInitialization",
      "type": "error"
    },
    {
      "inputs": [],
      "name": "NotInitializing",
      "type": "error"
    },
    {
      "inputs": [],
      "name": "ReentrancyGuardReentrantCall",
      "type": "error"
    },
    {
      "inputs": [
        {
          "internalType": "address",
          "name": "token",
          "type": "address"
        }
      ],
      "name": "SafeERC20FailedOperation",
      "type": "error"
    },
    {
      "inputs": [],
      "name": "UUPSUnauthorizedCallContext",
      "type": "error"
    },
    {
      "inputs": [
        {
          "internalType": "bytes32",
          "name": "slot",
          "type": "bytes32"
        }
      ],
      "name": "UUPSUnsupportedProxiableUUID",
      "type": "error"
    },
    {
      "anonymous": false,
      "inputs": [
        {
          "indexed": true,
          "internalType": "address",
          "name": "stTokenAddress",
          "type": "address"
        },
        {
          "indexed": true,
          "internalType": "uint256",
          "name": "poolWeight",
          "type": "uint256"
        },
        {
          "indexed": true,
          "internalType": "uint256",
          "name": "lastRewardBlock",
          "type": "uint256"
        },
        {
          "indexed": false,
          "internalType": "uint256",
          "name": "minDepositAmount",
          "type": "uint256"
        },
        {
          "indexed": false,
          "internalType": "uint256",
          "name": "unstakeLockedBlocks",
          "type": "uint256"
        }
      ],
      "name": "AddPool",
      "type": "event"
    },
    {
      "anonymous": false,
      "inputs": [
        {
          "indexed": true,
          "internalType": "address",
          "name": "user",
          "type": "address"
        },
        {
          "indexed": true,
          "internalType": "uint256",
          "name": "poolId",
          "type": "uint256"
        },
        {
          "indexed": false,
          "internalType": "uint256",
          "name": "MetaNodeReward",
          "type": "uint256"
        }
      ],
      "name": "Claim",
      "type": "event"
    },
    {
      "anonymous": false,
      "inputs": [
        {
          "indexed": true,
          "internalType": "address",
          "name": "user",
          "type": "address"
        },
        {
          "indexed": true,
          "internalType": "uint256",
          "name": "poolId",
          "type": "uint256"
        },
        {
          "indexed": false,
          "internalType": "uint256",
          "name": "amount",
          "type": "uint256"
        }
      ],
      "name": "Deposit",
      "type": "event"
    },
    {
      "anonymous": false,
      "inputs": [
        {
          "indexed": false,
          "internalType": "uint64",
          "name": "version",
          "type": "uint64"
        }
      ],
      "name": "Initialized",
      "type": "event"
    },
    {
      "anonymous": false,
      "inputs": [],
      "name": "PauseClaim",
      "type": "event"
    },
    {
      "anonymous": false,
      "inputs": [],
      "name": "PauseDeposit",
      "type": "event"
    },
    {
      "anonymous": false,
      "inputs": [],
      "name": "PauseWithdraw",
      "type": "event"
    },
    {
      "anonymous": false,
      "inputs": [
        {
          "indexed": true,
          "internalType": "address",
          "name": "user",
          "type": "address"
        },
        {
          "indexed": true,
          "internalType": "uint256",
          "name": "poolId",
          "type": "uint256"
        },
        {
          "indexed": false,
          "internalType": "uint256",
          "name": "amount",
          "type": "uint256"
        }
      ],
      "name": "RequestUnstake",
      "type": "event"
    },
    {
      "anonymous": false,
      "inputs": [
        {
          "indexed": true,
          "internalType": "bytes32",
          "name": "role",
          "type": "bytes32"
        },
        {
          "indexed": true,
          "internalType": "bytes32",
          "name": "previousAdminRole",
          "type": "bytes32"
        },
        {
          "indexed": true,
          "internalType": "bytes32",
          "name": "newAdminRole",
          "type": "bytes32"
        }
      ],
      "name": "RoleAdminChanged",
      "type": "event"
    },
    {
      "anonymous": false,
      "inputs": [
        {
          "indexed": true,
          "internalType": "bytes32",
          "name": "role",
          "type": "bytes32"
        },
        {
          "indexed": true,
          "internalType": "address",
          "name": "account",
          "type": "address"
        },
        {
          "indexed": true,
          "internalType": "address",
          "name": "sender",
          "type": "address"
        }
      ],
      "name": "RoleGranted",
      "type": "event"
    },
    {
      "anonymous": false,
      "inputs": [
        {
          "indexed": true,
          "internalType": "bytes32",
          "name": "role",
          "type": "bytes32"
        },
        {
          "indexed": true,
          "internalType": "address",
          "name": "account",
          "type": "address"
        },
        {
          "indexed": true,
          "internalType": "address",
          "name": "sender",
          "type": "address"
        }
      ],
      "name": "RoleRevoked",
      "type": "event"
    },
    {
      "anonymous": false,
      "inputs": [
        {
          "indexed": true,
          "internalType": "uint256",
          "name": "endBlock",
          "type": "uint256"
        }
      ],
      "name": "SetEndBlock",
      "type": "event"
    },
    {
      "anonymous": false,
      "inputs": [
        {
          "indexed": true,
          "internalType": "contract IERC20",
          "name": "MetaNode",
          "type": "address"
        }
      ],
      "name": "SetMetaNode",
      "type": "event"
    },
    {
      "anonymous": false,
      "inputs": [
        {
          "indexed": true,
          "internalType": "uint256",
          "name": "MetaNodePerBlock",
          "type": "uint256"
        }
      ],
      "name": "SetMetaNodePerBlock",
      "type": "event"
    },
    {
      "anonymous": false,
      "inputs": [
        {
          "indexed": true,
          "internalType": "uint256",
          "name": "poolId",
          "type": "uint256"
        },
        {
          "indexed": true,
          "internalType": "uint256",
          "name": "poolWeight",
          "type": "uint256"
        },
        {
          "indexed": false,
          "internalType": "uint256",
          "name": "totalPoolWeight",
          "type": "uint256"
        }
      ],
      "name": "SetPoolWeight",
      "type": "event"
    },
    {
      "anonymous": false,
      "inputs": [
        {
          "indexed": true,
          "internalType": "uint256",
          "name": "startBlock",
          "type": "uint256"
        }
      ],
      "name": "SetStartBlock",
      "type": "event"
    },
    {
      "anonymous": false,
      "inputs": [],
      "name": "UnpauseClaim",
      "type": "event"
    },
    {
      "anonymous": false,
      "inputs": [],
      "name": "UnpauseDeposit",
      "type": "event"
    },
    {
      "anonymous": false,
      "inputs": [],
      "name": "UnpauseWithdraw",
      "type": "event"
    },
    {
      "anonymous": false,
      "inputs": [
        {
          "indexed": true,
          "internalType": "uint256",
          "name": "poolId",
          "type": "uint256"
        },
        {
          "indexed": true,
          "internalType": "uint256",
          "name": "lastRewardBlock",
          "type": "uint256"
        },
        {
          "indexed": false,
          "internalType": "uint256",
          "name": "totalMetaNode",
          "type": "uint256"
        }
      ],
      "name": "UpdatePool",
      "type": "event"
    },
    {
      "anonymous": false,
      "inputs": [
        {
          "indexed": true,
          "internalType": "uint256",
          "name": "poolId",
          "type": "uint256"
        },
        {
          "indexed": true,
          "internalType": "uint256",
          "name": "minDepositAmount",
          "type": "uint256"
        },
        {
          "indexed": true,
          "internalType": "uint256",
          "name": "unstakeLockedBlocks",
          "type": "uint256"
        }
      ],
      "name": "UpdatePoolInfo",
      "type": "event"
    },
    {
      "anonymous": false,
      "inputs": [
        {
          "indexed": true,
          "internalType": "address",
          "name": "implementation",
          "type": "address"
        }
      ],
      "name": "Upgraded",
      "type": "event"
    },
    {
      "anonymous": false,
      "inputs": [
        {
          "indexed": true,
          "internalType": "address",
          "name": "user",
          "type": "address"
        },
        {
          "indexed": true,
          "internalType": "uint256",
          "name": "poolId",
          "type": "uint256"
        },
        {
          "indexed": false,
          "internalType": "uint256",
          "name": "amount",
          "type": "uint256"
        },
        {
          "indexed": true,
          "internalType": "uint256",
          "name": "blockNumber",
          "type": "uint256"
        }
      ],
      "name": "Withdraw",
      "type": "event"
    },
    {
      "inputs": [],
      "name": "ADMIN_ROLE",
      "outputs": [
        {
          "internalType": "bytes32",
          "name": "",
          "type": "bytes32"
        }
      ],
      "stateMutability": "view",
      "type": "function"
    },
    {
      "inputs": [],
      "name": "DEFAULT_ADMIN_ROLE",
      "outputs": [
        {
          "internalType": "bytes32",
          "name": "",
          "type": "bytes32"
        }
      ],
      "stateMutability": "view",
      "type": "function"
    },
    {
      "inputs": [],
      "name": "ETH_PID",
      "outputs": [
        {
          "internalType": "uint256",
          "name": "",
          "type": "uint256"
        }
      ],
      "stateMutability": "view",
      "type": "function"
    },
    {
      "inputs": [],
      "name": "MetaNode",
      "outputs": [
        {
          "internalType": "contract IERC20",
          "name": "",
          "type": "address"
        }
      ],
      "stateMutability": "view",
      "type": "function"
    },
    {
      "inputs": [],
      "name": "MetaNodePerBlock",
      "outputs": [
        {
          "internalType": "uint256",
          "name": "",
          "type": "uint256"
        }
      ],
      "stateMutability": "view",
      "type": "function"
    },
    {
      "inputs": [],
      "name": "UPGRADE_INTERFACE_VERSION",
      "outputs": [
        {
          "internalType": "string",
          "name": "",
          "type": "string"
        }
      ],
      "stateMutability": "view",
      "type": "function"
    },
    {
      "inputs": [],
      "name": "UPGRADE_ROLE",
      "outputs": [
        {
          "internalType": "bytes32",
          "name": "",
          "type": "bytes32"
        }
      ],
      "stateMutability": "view",
      "type": "function"
    },
    {
      "inputs": [
        {
          "internalType": "address",
          "name": "_stTokenAddress",
          "type": "address"
        },
        {
          "internalType": "uint256",
          "name": "_poolWeight",
          "type": "uint256"
        },
        {
          "internalType": "uint256",
          "name": "_minDepositAmount",
          "type": "uint256"
        },
        {
          "internalType": "uint256",
          "name": "_unstakeLockedBlocks",
          "type": "uint256"
        },
        {
          "internalType": "bool",
          "name": "_withUpdate",
          "type": "bool"
        }
      ],
      "name": "addPool",
      "outputs": [],
      "stateMutability": "nonpayable",
      "type": "function"
    },
    {
      "inputs": [
        {
          "internalType": "uint256",
          "name": "_pid",
          "type": "uint256"
        }
      ],
      "name": "claim",
      "outputs": [],
      "stateMutability": "nonpayable",
      "type": "function"
    },
    {
      "inputs": [],
      "name": "claimPaused",
      "outputs": [
        {
          "internalType": "bool",
          "name": "",
          "type": "bool"
        }
      ],
      "stateMutability": "view",
      "type": "function"
    },
    {
      "inputs": [
        {
          "internalType": "uint256",
          "name": "_pid",
          "type": "uint256"
        },
        {
          "internalType": "uint256",
          "name": "_amount",
          "type": "uint256"
        }
      ],
      "name": "deposit",
      "outputs": [],
      "stateMutability": "nonpayable",
      "type": "function"
    },
    {
      "inputs": [],
      "name": "depositETH",
      "outputs": [],
      "stateMutability": "payable",
      "type": "function"
    },
    {
      "inputs": [],
      "name": "depositPaused",
      "outputs": [
        {
          "internalType": "bool",
          "name": "",
          "type": "bool"
        }
      ],
      "stateMutability": "view",
      "type": "function"
    },
    {
      "inputs": [],
      "name": "endBlock",
      "outputs": [
        {
          "internalType": "uint256",
          "name": "",
          "type": "uint256"
        }
      ],
      "stateMutability": "view",
      "type": "function"
    },
    {
      "inputs": [
        {
          "internalType": "uint256",
          "name": "_from",
          "type": "uint256"
        },
        {
          "internalType": "uint256",
          "name": "_to",
          "type": "uint256"
        }
      ],
      "name": "getMultiplier",
      "outputs": [
        {
          "internalType": "uint256",
          "name": "multiplier",
          "type": "uint256"
        }
      ],
      "stateMutability": "view",
      "type": "function"
    },
    {
      "inputs": [
        {
          "internalType": "bytes32",
          "name": "role",
          "type": "bytes32"
        }
      ],
      "name": "getRoleAdmin",
      "outputs": [
        {
          "internalType": "bytes32",
          "name": "",
          "type": "bytes32"
        }
      ],
      "stateMutability": "view",
      "type": "function"
    },
    {
      "inputs": [
        {
          "internalType": "bytes32",
          "name": "role",
          "type": "bytes32"
        },
        {
          "internalType": "address",
          "name": "account",
          "type": "address"
        }
      ],
      "name": "grantRole",
      "outputs": [],
      "stateMutability": "nonpayable",
      "type": "function"
    },
    {
      "inputs": [
        {
          "internalType": "bytes32",
          "name": "role",
          "type": "bytes32"
        },
        {
          "internalType": "address",
          "name": "account",
          "type": "address"
        }
      ],
      "name": "hasRole",
      "outputs": [
        {
          "internalType": "bool",
          "name": "",
          "type": "bool"
        }
      ],
      "stateMutability": "view",
      "type": "function"
    },
    {
      "inputs": [
        {
          "internalType": "contract IERC20",
          "name": "_MetaNode",
          "type": "address"
        },
        {
          "internalType": "uint256",
          "name": "_startBlock",
          "type": "uint256"
        },
        {
          "internalType": "uint256",
          "name": "_endBlock",
          "type": "uint256"
        },
        {
          "internalType": "uint256",
          "name": "_MetaNodePerBlock",
          "type": "uint256"
        }
      ],
      "name": "initialize",
      "outputs": [],
      "stateMutability": "nonpayable",
      "type": "function"
    },
    {
      "inputs": [],
      "name": "massUpdatePools",
      "outputs": [],
      "stateMutability": "nonpayable",
      "type": "function"
    },
    {
      "inputs": [],
      "name": "pauseClaim",
      "outputs": [],
      "stateMutability": "nonpayable",
      "type": "function"
    },
    {
      "inputs": [],
      "name": "pauseDeposit",
      "outputs": [],
      "stateMutability": "nonpayable",
      "type": "function"
    },
    {
      "inputs": [],
      "name": "pauseWithdraw",
      "outputs": [],
      "stateMutability": "nonpayable",
      "type": "function"
    },
    {
      "inputs": [
        {
          "internalType": "uint256",
          "name": "_pid",
          "type": "uint256"
        },
        {
          "internalType": "address",
          "name": "_user",
          "type": "address"
        }
      ],
      "name": "pendingMetaNode",
      "outputs": [
        {
          "internalType": "uint256",
          "name": "",
          "type": "uint256"
        }
      ],
      "stateMutability": "view",
      "type": "function"
    },
    {
      "inputs": [
        {
          "internalType": "uint256",
          "name": "_pid",
          "type": "uint256"
        },
        {
          "internalType": "address",
          "name": "_user",
          "type": "address"
        },
        {
          "internalType": "uint256",
          "name": "_blockNumber",
          "type": "uint256"
        }
      ],
      "name": "pendingMetaNodeByBlockNumber",
      "outputs": [
        {
          "internalType": "uint256",
          "name": "",
          "type": "uint256"
        }
      ],
      "stateMutability": "view",
      "type": "function"
    },
    {
      "inputs": [
        {
          "internalType": "uint256",
          "name": "",
          "type": "uint256"
        }
      ],
      "name": "pool",
      "outputs": [
        {
          "internalType": "address",
          "name": "stTokenAddress",
          "type": "address"
        },
        {
          "internalType": "uint256",
          "name": "poolWeight",
          "type": "uint256"
        },
        {
          "internalType": "uint256",
          "name": "lastRewardBlock",
          "type": "uint256"
        },
        {
          "internalType": "uint256",
          "name": "accMetaNodePerST",
          "type": "uint256"
        },
        {
          "internalType": "uint256",
          "name": "stTokenAmount",
          "type": "uint256"
        },
        {
          "internalType": "uint256",
          "name": "minDepositAmount",
          "type": "uint256"
        },
        {
          "internalType": "uint256",
          "name": "unstakeLockedBlocks",
          "type": "uint256"
        }
      ],
      "stateMutability": "view",
      "type": "function"
    },
    {
      "inputs": [],
      "name": "poolLength",
      "outputs": [
        {
          "internalType": "uint256",
          "name": "",
          "type": "uint256"
        }
      ],
      "stateMutability": "view",
      "type": "function"
    },
    {
      "inputs": [],
      "name": "proxiableUUID",
      "outputs": [
        {
          "internalType": "bytes32",
          "name": "",
          "type": "bytes32"
        }
      ],
      "stateMutability": "view",
      "type": "function"
    },
    {
      "inputs": [
        {
          "internalType": "bytes32",
          "name": "role",
          "type": "bytes32"
        },
        {
          "internalType": "address",
          "name": "callerConfirmation",
          "type": "address"
        }
      ],
      "name": "renounceRole",
      "outputs": [],
      "stateMutability": "nonpayable",
      "type": "function"
    },
    {
      "inputs": [
        {
          "internalType": "bytes32",
          "name": "role",
          "type": "bytes32"
        },
        {
          "internalType": "address",
          "name": "account",
          "type": "address"
        }
      ],
      "name": "revokeRole",
      "outputs": [],
      "stateMutability": "nonpayable",
      "type": "function"
    },
    {
      "inputs": [
        {
          "internalType": "uint256",
          "name": "_endBlock",
          "type": "uint256"
        }
      ],
      "name": "setEndBlock",
      "outputs": [],
      "stateMutability": "nonpayable",
      "type": "function"
    },
    {
      "inputs": [
        {
          "internalType": "contract IERC20",
          "name": "_MetaNode",
          "type": "address"
        }
      ],
      "name": "setMetaNode",
      "outputs": [],
      "stateMutability": "nonpayable",
      "type": "function"
    },
    {
      "inputs": [
        {
          "internalType": "uint256",
          "name": "_MetaNodePerBlock",
          "type": "uint256"
        }
      ],
      "name": "setMetaNodePerBlock",
      "outputs": [],
      "stateMutability": "nonpayable",
      "type": "function"
    },
    {
      "inputs": [
        {
          "internalType": "uint256",
          "name": "_pid",
          "type": "uint256"
        },
        {
          "internalType": "uint256",
          "name": "_poolWeight",
          "type": "uint256"
        },
        {
          "internalType": "bool",
          "name": "_withUpdate",
          "type": "bool"
        }
      ],
      "name": "setPoolWeight",
      "outputs": [],
      "stateMutability": "nonpayable",
      "type": "function"
    },
    {
      "inputs": [
        {
          "internalType": "uint256",
          "name": "_startBlock",
          "type": "uint256"
        }
      ],
      "name": "setStartBlock",
      "outputs": [],
      "stateMutability": "nonpayable",
      "type": "function"
    },
    {
      "inputs": [
        {
          "internalType": "uint256",
          "name": "_pid",
          "type": "uint256"
        },
        {
          "internalType": "address",
          "name": "_user",
          "type": "address"
        }
      ],
      "name": "stakingBalance",
      "outputs": [
        {
          "internalType": "uint256",
          "name": "",
          "type": "uint256"
        }
      ],
      "stateMutability": "view",
      "type": "function"
    },
    {
      "inputs": [],
      "name": "startBlock",
      "outputs": [
        {
          "internalType": "uint256",
          "name": "",
          "type": "uint256"
        }
      ],
      "stateMutability": "view",
      "type": "function"
    },
    {
      "inputs": [
        {
          "internalType": "bytes4",
          "name": "interfaceId",
          "type": "bytes4"
        }
      ],
      "name": "supportsInterface",
      "outputs": [
        {
          "internalType": "bool",
          "name": "",
          "type": "bool"
        }
      ],
      "stateMutability": "view",
      "type": "function"
    },
    {
      "inputs": [],
      "name": "totalPoolWeight",
      "outputs": [
        {
          "internalType": "uint256",
          "name": "",
          "type": "uint256"
        }
      ],
      "stateMutability": "view",
      "type": "function"
    },
    {
      "inputs": [],
      "name": "unpauseClaim",
      "outputs": [],
      "stateMutability": "nonpayable",
      "type": "function"
    },
    {
      "inputs": [],
      "name": "unpauseDeposit",
      "outputs": [],
      "stateMutability": "nonpayable",
      "type": "function"
    },
    {
      "inputs": [],
      "name": "unpauseWithdraw",
      "outputs": [],
      "stateMutability": "nonpayable",
      "type": "function"
    },
    {
      "inputs": [
        {
          "internalType": "uint256",
          "name": "_pid",
          "type": "uint256"
        },
        {
          "internalType": "uint256",
          "name": "_amount",
          "type": "uint256"
        }
      ],
      "name": "unstake",
      "outputs": [],
      "stateMutability": "nonpayable",
      "type": "function"
    },
    {
      "inputs": [
        {
          "internalType": "uint256",
          "name": "_pid",
          "type": "uint256"
        }
      ],
      "name": "updatePool",
      "outputs": [],
      "stateMutability": "nonpayable",
      "type": "function"
    },
    {
      "inputs": [
        {
          "internalType": "uint256",
          "name": "_pid",
          "type": "uint256"
        },
        {
          "internalType": "uint256",
          "name": "_minDepositAmount",
          "type": "uint256"
        },
        {
          "internalType": "uint256",
          "name": "_unstakeLockedBlocks",
          "type": "uint256"
        }
      ],
      "name": "updatePool",
      "outputs": [],
      "stateMutability": "nonpayable",
      "type": "function"
    },
    {
      "inputs": [
        {
          "internalType": "address",
          "name": "newImplementation",
          "type": "address"
        },
        {
          "internalType": "bytes",
          "name": "data",
          "type": "bytes"
        }
      ],
      "name": "upgradeToAndCall",
      "outputs": [],
      "stateMutability": "payable",
      "type": "function"
    },
    {
      "inputs": [
        {
          "internalType": "uint256",
          "name": "",
          "type": "uint256"
        },
        {
          "internalType": "address",
          "name": "",
          "type": "address"
        }
      ],
      "name": "user",
      "outputs": [
        {
          "internalType": "uint256",
          "name": "stAmount",
          "type": "uint256"
        },
        {
          "internalType": "uint256",
          "name": "finishedMetaNode",
          "type": "uint256"
        },
        {
          "internalType": "uint256",
          "name": "pendingMetaNode",
          "type": "uint256"
        }
      ],
      "stateMutability": "view",
      "type": "function"
    },
    {
      "inputs": [],
      "name": "version",
      "outputs": [
        {
          "internalType": "string",
          "name": "",
          "type": "string"
        }
      ],
      "stateMutability": "pure",
      "type": "function"
    },
    {
      "inputs": [
        {
          "internalType": "uint256",
          "name": "_pid",
          "type": "uint256"
        }
      ],
      "name": "withdraw",
      "outputs": [],
      "stateMutability": "nonpayable",
      "type": "function"
    },
    {
      "inputs": [
        {
          "internalType": "uint256",
          "name": "_pid",
          "type": "uint256"
        },
        {
          "internalType": "address",
          "name": "_user",
          "type": "address"
        }
      ],
      "name": "withdrawAmount",
      "outputs": [
        {
          "internalType": "uint256",
          "name": "requestAmount",
          "type": "uint256"
        },
        {
          "internalType": "uint256",
          "name": "pendingWithdrawAmount",
          "type": "uint256"
        }
      ],
      "stateMutability": "view",
      "type": "function"
    },
    {
      "inputs": [],
      "name": "withdrawPaused",
      "outputs": [
        {
          "internalType": "bool",
          "name": "",
          "type": "bool"
        }
      ],
      "stateMutability": "view",
      "type": "function"
    }
  ],
  "bytecode": "0x60a0604052306080523480156012575f5ffd5b506080516136756100395f395f818161284c015281816128750152612a0901526136755ff3fe6080604052600436106102d9575f3560e01c806369026e8811610189578063c713aa94116100d8578063e2bbb15811610092578063f6326fb31161006d578063f6326fb314610885578063fad07ece1461088d578063fe313112146108ac578063ff4233571461090a575f5ffd5b8063e2bbb15814610828578063ea5c219d14610847578063f35e4a6e14610866575f5ffd5b8063c713aa941461075a578063d22f1d8014610779578063d547741f146107b7578063d7bc1769146107d6578063d86c0444146107f5578063de065caa14610814575f5ffd5b80639ea96e6611610143578063ad3cb1cc1161011e578063ad3cb1cc146106d8578063b6d9d91914610708578063b908afa814610727578063bfc3ebba146106a6575f5ffd5b80639ea96e6614610691578063a217fddf146106a6578063ab5e124a146106b9575f5ffd5b806369026e88146105ec57806375b238fc146106005780638dbb1e3a146106205780638ff095f91461063f57806391d14854146106535780639e2c8a5b14610672575f5ffd5b8063379607f51161024557806352d1902d116101ff5780636155e3de116101da5780636155e3de1461058657806361a9a03d1461059a578063630b5ba1146105b95780636325d5bc146105cd575f5ffd5b806352d1902d1461052957806354fd4d501461053d5780635bb6d00714610572575f5ffd5b8063379607f51461049157806348cd4cb1146104b05780634ec81af1146104c45780634f1ef286146104e35780635157ced5146104f657806351eb05a61461050a575f5ffd5b8063248a9ca311610296578063248a9ca3146103955780632e1a7d4d146103b45780632f2ff15d146103d55780632f3ffb9f146103f457806336568abe1461041257806337849b3c14610431575f5ffd5b806301ffc9a7146102dd578063025590041461031157806302befd2414610334578063081e3eda1461034d578063083c6323146103615780631154823414610376575b5f5ffd5b3480156102e8575f5ffd5b506102fc6102f73660046130df565b61093e565b60405190151581526020015b60405180910390f35b34801561031c575f5ffd5b5061032660045481565b604051908152602001610308565b34801561033f575f5ffd5b506003546102fc9060ff1681565b348015610358575f5ffd5b50600554610326565b34801561036c575f5ffd5b5061032660015481565b348015610381575f5ffd5b5061032661039036600461311a565b610974565b3480156103a0575f5ffd5b506103266103af366004613148565b6109ce565b3480156103bf575f5ffd5b506103d36103ce366004613148565b6109ee565b005b3480156103e0575f5ffd5b506103d36103ef36600461311a565b610c63565b3480156103ff575f5ffd5b506003546102fc90610100900460ff1681565b34801561041d575f5ffd5b506103d361042c36600461311a565b610c85565b34801561043c575f5ffd5b5061047661044b36600461311a565b600660209081525f928352604080842090915290825290208054600182015460029092015490919083565b60408051938452602084019290925290820152606001610308565b34801561049c575f5ffd5b506103d36104ab366004613148565b610cbd565b3480156104bb575f5ffd5b506103265f5481565b3480156104cf575f5ffd5b506103d36104de36600461315f565b610e34565b6103d36104f13660046131ab565b610ff4565b348015610501575f5ffd5b506103d3611013565b348015610515575f5ffd5b506103d3610524366004613148565b6110bb565b348015610534575f5ffd5b50610326611264565b348015610548575f5ffd5b50604080518082019091526004815263056322e360e41b60208201525b6040516103089190613271565b34801561057d575f5ffd5b506103d361127f565b348015610591575f5ffd5b506103d361132e565b3480156105a5575f5ffd5b506103d36105b43660046132a6565b6113d7565b3480156105c4575f5ffd5b506103d3611449565b3480156105d8575f5ffd5b506103266105e73660046132c1565b611467565b3480156105f7575f5ffd5b506103d361159e565b34801561060b575f5ffd5b506103265f5160206135e05f395f51905f5281565b34801561062b575f5ffd5b5061032661063a3660046132f6565b611640565b34801561064a575f5ffd5b506103d361175c565b34801561065e575f5ffd5b506102fc61066d36600461311a565b611808565b34801561067d575f5ffd5b506103d361068c3660046132f6565b61183e565b34801561069c575f5ffd5b5061032660025481565b3480156106b1575f5ffd5b506103265f81565b3480156106c4575f5ffd5b506003546102fc9062010000900460ff1681565b3480156106e3575f5ffd5b50610565604051806040016040528060058152602001640352e302e360dc1b81525081565b348015610713575f5ffd5b506103d3610722366004613323565b611a6e565b348015610732575f5ffd5b506103267fcab03bc4dbcc648cd59d6bbe9f848d1e9092f914016aa290ee92e18700d1e6f981565b348015610765575f5ffd5b506103d3610774366004613148565b611d5b565b348015610784575f5ffd5b5060035461079f90630100000090046001600160a01b031681565b6040516001600160a01b039091168152602001610308565b3480156107c2575f5ffd5b506103d36107d136600461311a565b611dc6565b3480156107e1575f5ffd5b506103d36107f0366004613148565b611de2565b348015610800575f5ffd5b506103d361080f366004613375565b611e6f565b34801561081f575f5ffd5b506103d3611f2d565b348015610833575f5ffd5b506103d36108423660046132f6565b611fd3565b348015610852575f5ffd5b5061032661086136600461311a565b612129565b348015610871575f5ffd5b506103d3610880366004613148565b612161565b6103d36121ca565b348015610898575f5ffd5b506103d36108a736600461339e565b6122bf565b3480156108b7575f5ffd5b506108cb6108c6366004613148565b6123e9565b604080516001600160a01b0390981688526020880196909652948601939093526060850191909152608084015260a083015260c082015260e001610308565b348015610915575f5ffd5b5061092961092436600461311a565b612440565b60408051928352602083019190915201610308565b5f6001600160e01b03198216637965db0b60e01b148061096e57506301ffc9a760e01b6001600160e01b03198316145b92915050565b6005545f90839081106109a25760405162461bcd60e51b8152600401610999906133d4565b60405180910390fd5b5f8481526006602090815260408083206001600160a01b038716845290915290205491505b5092915050565b5f9081525f5160206136205f395f51905f52602052604090206001015490565b60055481908110610a115760405162461bcd60e51b8152600401610999906133d4565b600354610100900460ff1615610a5e5760405162461bcd60e51b81526020600482015260126024820152711dda5d1a191c985dc81a5cc81c185d5cd95960721b6044820152606401610999565b5f60058381548110610a7257610a726133f9565b5f918252602080832086845260068252604080852033865290925290832060079092020192509080805b6003840154811015610b195743846003018281548110610abe57610abe6133f9565b905f5260205f2090600202016001015411610b1957836003018181548110610ae857610ae86133f9565b905f5260205f2090600202015f015483610b029190613421565b925081610b0e81613434565b925050600101610a9c565b505f5b6003840154610b2c90839061344c565b811015610b965760038401610b418383613421565b81548110610b5157610b516133f9565b905f5260205f209060020201846003018281548110610b7257610b726133f9565b5f918252602090912082546002909202019081556001918201549082015501610b1c565b505f5b81811015610bdb5783600301805480610bb457610bb461345f565b5f8281526020812060025f1990930192830201818155600190810191909155915501610b99565b508115610c165783546001600160a01b0316610c0057610bfb3383612536565b610c16565b8354610c16906001600160a01b03163384612540565b4386336001600160a01b03167f02f25270a4d87bea75db541cdfe559334a275b4a233520ed6c0a2429667cca9485604051610c5391815260200190565b60405180910390a4505050505050565b610c6c826109ce565b610c758161259f565b610c7f83836125ac565b50505050565b6001600160a01b0381163314610cae5760405163334bd91960e11b815260040160405180910390fd5b610cb8828261264d565b505050565b60055481908110610ce05760405162461bcd60e51b8152600401610999906133d4565b60035462010000900460ff1615610d2b5760405162461bcd60e51b815260206004820152600f60248201526e18db185a5b481a5cc81c185d5cd959608a1b6044820152606401610999565b5f60058381548110610d3f57610d3f6133f9565b5f9182526020808320868452600682526040808520338652909252922060079091029091019150610d6f846110bb565b5f81600201548260010154670de0b6b3a76400008560030154855f0154610d969190613473565b610da0919061348a565b610daa919061344c565b610db49190613421565b90508015610dcc575f6002830155610dcc33826126c6565b60038301548254670de0b6b3a764000091610de691613473565b610df0919061348a565b6001830155604051818152859033907f34fcbac0073d7c3d388e51312faf357774904998eeb8fca628b9e6f65ee1cbf7906020015b60405180910390a35050505050565b5f610e3d6127ff565b805490915060ff600160401b820416159067ffffffffffffffff165f81158015610e645750825b90505f8267ffffffffffffffff166001148015610e805750303b155b905081158015610e8e575080155b15610eac5760405163f92ee8a960e01b815260040160405180910390fd5b845467ffffffffffffffff191660011785558315610ed657845460ff60401b1916600160401b1785555b868811158015610ee557505f86115b610f265760405162461bcd60e51b8152602060048201526012602482015271696e76616c696420706172616d657465727360701b6044820152606401610999565b610f2e612827565b610f36612827565b610f3e612831565b610f485f336125ac565b50610f737fcab03bc4dbcc648cd59d6bbe9f848d1e9092f914016aa290ee92e18700d1e6f9336125ac565b50610f8b5f5160206135e05f395f51905f52336125ac565b50610f95896113d7565b5f889055600187905560028690558315610fe957845460ff60401b19168555604051600181527fc7f505b2f371ae2175ee4913f4499e1f2633a7b5936321eed1cdaeb6115181d29060200160405180910390a15b505050505050505050565b610ffc612841565b611005826128e5565b61100f828261290f565b5050565b5f5160206135e05f395f51905f5261102a8161259f565b60035460ff166110865760405162461bcd60e51b815260206004820152602160248201527f6465706f73697420686173206265656e20616c726561647920756e70617573656044820152601960fa1b6064820152608401610999565b6003805460ff191690556040517f0168f07e5c770adf011f4d014f5350bbb70a4734027bdbaa3331f829e53a5657905f90a150565b600554819081106110de5760405162461bcd60e51b8152600401610999906133d4565b5f600583815481106110f2576110f26133f9565b905f5260205f20906007020190508060020154431161111057505050565b5f5f61112e8360010154611128856002015443611640565b906129cb565b915091508161114f5760405162461bcd60e51b8152600401610999906134a9565b60045480151592509004816111765760405162461bcd60e51b8152600401610999906134a9565b6004830154801561121e575f8061119584670de0b6b3a76400006129cb565b91509150816111b65760405162461bcd60e51b8152600401610999906134a9565b8215159150829004816111db5760405162461bcd60e51b8152600401610999906134a9565b5f5f6111f48389600301546129ee90919063ffffffff16565b91509150816112155760405162461bcd60e51b8152600401610999906134a9565b60038801555050505b436002850181905560405183815287907ff5d2d72d9b25d6853afd7d0554a113b705234b6a68bb36b7f143662994632411906020015b60405180910390a3505050505050565b5f61126d6129fe565b505f5160206136005f395f51905f5290565b5f5160206135e05f395f51905f526112968161259f565b600354610100900460ff166112f85760405162461bcd60e51b815260206004820152602260248201527f776974686472617720686173206265656e20616c726561647920756e70617573604482015261195960f21b6064820152608401610999565b6003805461ff00191690556040517f1c84bcaead48b692cc46b9b12e9a068951a59c99a2e2bf10b00b60b403cf12e2905f90a150565b5f5160206135e05f395f51905f526113458161259f565b600354610100900460ff161561139d5760405162461bcd60e51b815260206004820181905260248201527f776974686472617720686173206265656e20616c7265616479207061757365646044820152606401610999565b6003805461ff0019166101001790556040517f8099f593a6aaecd68b6494933cd71f703376ac3975be83692e1b7d800abf6837905f90a150565b5f5160206135e05f395f51905f526113ee8161259f565b600380546301000000600160b81b03191663010000006001600160a01b0385811682029290921792839055604051920416907fafef10ff40345dd21fc1cac02d8ec620a709c9b0983e9c6454d2bef77f077df3905f90a25050565b6005545f5b8181101561100f5761145f816110bb565b60010161144e565b6005545f908490811061148c5760405162461bcd60e51b8152600401610999906133d4565b5f600586815481106114a0576114a06133f9565b5f91825260208083208984526006825260408085206001600160a01b038b16865290925292206003600790920290920190810154600482015460028301549294509091871180156114f057508015155b15611552575f611504856002015489611640565b90505f60045486600101548361151a9190613473565b611524919061348a565b90508261153982670de0b6b3a7640000613473565b611543919061348a565b61154d9085613421565b935050505b600283015460018401548454670de0b6b3a764000090611573908690613473565b61157d919061348a565b611587919061344c565b6115919190613421565b9998505050505050505050565b5f5160206135e05f395f51905f526115b58161259f565b60035460ff16156116085760405162461bcd60e51b815260206004820152601f60248201527f6465706f73697420686173206265656e20616c726561647920706175736564006044820152606401610999565b6003805460ff191660011790556040517f0f933486a87a0ea07c4b9f8e795ed8b8e6a118792e5791f758128c4c4add73ee905f90a150565b5f818311156116815760405162461bcd60e51b815260206004820152600d60248201526c696e76616c696420626c6f636b60981b6044820152606401610999565b5f5483101561168f575f5492505b60015482111561169f5760015491505b818311156117025760405162461bcd60e51b815260206004820152602a60248201527f656e6420626c6f636b206d7573742062652067726561746572207468616e20736044820152697461727420626c6f636b60b01b6064820152608401610999565b5f6117156002548585611128919061344c565b92509050806109c75760405162461bcd60e51b81526020600482015260136024820152726d756c7469706c696572206f766572666c6f7760681b6044820152606401610999565b5f5160206135e05f395f51905f526117738161259f565b60035462010000900460ff16156117cc5760405162461bcd60e51b815260206004820152601d60248201527f636c61696d20686173206265656e20616c7265616479207061757365640000006044820152606401610999565b6003805462ff00001916620100001790556040517f6d73d6b34c378ab3bf6630206d60b7882801b91d03ee20d016ff0d5054db81e1905f90a150565b5f9182525f5160206136205f395f51905f52602090815260408084206001600160a01b0393909316845291905290205460ff1690565b600554829081106118615760405162461bcd60e51b8152600401610999906133d4565b600354610100900460ff16156118ae5760405162461bcd60e51b81526020600482015260126024820152711dda5d1a191c985dc81a5cc81c185d5cd95960721b6044820152606401610999565b5f600584815481106118c2576118c26133f9565b5f9182526020808320878452600682526040808520338652909252922080546007909202909201925084111561193a5760405162461bcd60e51b815260206004820181905260248201527f4e6f7420656e6f756768207374616b696e6720746f6b656e2062616c616e63656044820152606401610999565b611943856110bb565b5f8160010154670de0b6b3a76400008460030154845f01546119659190613473565b61196f919061348a565b611979919061344c565b90508015611997578082600201546119919190613421565b60028301555b84156119fc5781546119aa90869061344c565b825560408051808201909152858152600684015460038401919060208201906119d39043613421565b90528154600181810184555f938452602093849020835160029093020191825592909101519101555b848360040154611a0c919061344c565b600484015560038301548254670de0b6b3a764000091611a2b91613473565b611a35919061348a565b6001830155604051858152869033907fc80277265097707f6f12a4ac4c09d46c9926e2eea2536f63616cb04d9fcad7d690602001611254565b5f5160206135e05f395f51905f52611a858161259f565b60055415611ab8576001600160a01b038616611ab35760405162461bcd60e51b8152600401610999906134cb565b611adf565b6001600160a01b03861615611adf5760405162461bcd60e51b8152600401610999906134cb565b5f8311611b2e5760405162461bcd60e51b815260206004820152601e60248201527f696e76616c6964207769746864726177206c6f636b656420626c6f636b7300006044820152606401610999565b6001544310611b6f5760405162461bcd60e51b815260206004820152600d60248201526c105b1c9958591e48195b991959609a1b6044820152606401610999565b8115611b7d57611b7d611449565b5f5f544311611b8d575f54611b8f565b435b905085600454611b9f9190613421565b6004556040805160e0810182526001600160a01b0389811680835260208084018b81528486018781525f606087018181526080880182815260a089018f815260c08a018f815260058054600181018255955299517f036b6384b5eca791c62761152d0c79bb0604c104a5fb6f4eb0703f3154bb3db0600790950294850180546001600160a01b03191691909a161790985593517f036b6384b5eca791c62761152d0c79bb0604c104a5fb6f4eb0703f3154bb3db183015591517f036b6384b5eca791c62761152d0c79bb0604c104a5fb6f4eb0703f3154bb3db282015590517f036b6384b5eca791c62761152d0c79bb0604c104a5fb6f4eb0703f3154bb3db382015590517f036b6384b5eca791c62761152d0c79bb0604c104a5fb6f4eb0703f3154bb3db482015592517f036b6384b5eca791c62761152d0c79bb0604c104a5fb6f4eb0703f3154bb3db584015592517f036b6384b5eca791c62761152d0c79bb0604c104a5fb6f4eb0703f3154bb3db6909201919091558251888152918201879052839289927f0fa296fce13e7a0e622b3a892e66220c248337289483a3cfa4130cde0caa1346910160405180910390a450505050505050565b5f5160206135e05f395f51905f52611d728161259f565b815f541115611d935760405162461bcd60e51b815260040161099990613502565b600182905560405182907f1132c5baccb51da3d049fabc819697dc845fa224ad59d9b555507d6446b40850905f90a25050565b611dcf826109ce565b611dd88161259f565b610c7f838361264d565b5f5160206135e05f395f51905f52611df98161259f565b5f8211611e3c5760405162461bcd60e51b815260206004820152601160248201527034b73b30b634b2103830b930b6b2ba32b960791b6044820152606401610999565b600282905560405182907fa0b1720fac15ab5b6e184fa4d22f43e0e2594ae0373a61a3fc48aefb84ab92f7905f90a25050565b5f5160206135e05f395f51905f52611e868161259f565b60055484908110611ea95760405162461bcd60e51b8152600401610999906133d4565b8360058681548110611ebd57611ebd6133f9565b905f5260205f209060070201600501819055508260058681548110611ee457611ee46133f9565b905f5260205f209060070201600601819055508284867f30dffdedaa3e3b4849298233f7cd71d229956e875ab09270498c96b7cf9181fd60405160405180910390a45050505050565b5f5160206135e05f395f51905f52611f448161259f565b60035462010000900460ff16611f9c5760405162461bcd60e51b815260206004820152601f60248201527f636c61696d20686173206265656e20616c726561647920756e706175736564006044820152606401610999565b6003805462ff0000191690556040517fe72cb12952f056e3e7496019725f20a13108ca420f67f1ee9c9cdab73fb8ce85905f90a150565b60035460ff161561201a5760405162461bcd60e51b815260206004820152601160248201527019195c1bdcda5d081a5cc81c185d5cd959607a1b6044820152606401610999565b6005548290811061203d5760405162461bcd60e51b8152600401610999906133d4565b825f0361208c5760405162461bcd60e51b815260206004820152601f60248201527f6465706f736974206e6f7420737570706f727420455448207374616b696e67006044820152606401610999565b5f600584815481106120a0576120a06133f9565b905f5260205f209060070201905080600501548310156121025760405162461bcd60e51b815260206004820152601b60248201527f6465706f73697420616d6f756e7420697320746f6f20736d616c6c00000000006044820152606401610999565b821561211f57805461211f906001600160a01b0316333086612a47565b610c7f8484612a80565b6005545f908390811061214e5760405162461bcd60e51b8152600401610999906133d4565b612159848443611467565b949350505050565b5f5160206135e05f395f51905f526121788161259f565b60015482111561219a5760405162461bcd60e51b815260040161099990613502565b5f82815560405183917f63b90b79f11a0f132bcb2c4a4ddd44abda45c1308a83b2919318df7f5f8b7be491a25050565b60035460ff16156122115760405162461bcd60e51b815260206004820152601160248201527019195c1bdcda5d081a5cc81c185d5cd959607a1b6044820152606401610999565b5f60055f81548110612225576122256133f9565b5f918252602090912060079091020180549091506001600160a01b03161561225f5760405162461bcd60e51b8152600401610999906134cb565b600581015434908110156122b55760405162461bcd60e51b815260206004820152601b60248201527f6465706f73697420616d6f756e7420697320746f6f20736d616c6c00000000006044820152606401610999565b61100f5f82612a80565b5f5160206135e05f395f51905f526122d68161259f565b600554849081106122f95760405162461bcd60e51b8152600401610999906133d4565b5f841161233e5760405162461bcd60e51b81526020600482015260136024820152721a5b9d985b1a59081c1bdbdb081dd95a59da1d606a1b6044820152606401610999565b821561234c5761234c611449565b8360058681548110612360576123606133f9565b905f5260205f2090600702016001015460045461237d919061344c565b6123879190613421565b60048190555083600586815481106123a1576123a16133f9565b905f5260205f2090600702016001018190555083857f4b8fa3d6a87cb21d1bf4978bf60628ae358a28ac7f39de1751a481c6dd957617600454604051610e2591815260200190565b600581815481106123f8575f80fd5b5f91825260209091206007909102018054600182015460028301546003840154600485015460058601546006909601546001600160a01b039095169650929491939092919087565b5f5f8360058054905081106124675760405162461bcd60e51b8152600401610999906133d4565b5f8581526006602090815260408083206001600160a01b03881684529091528120905b600382015481101561252c57438260030182815481106124ac576124ac6133f9565b905f5260205f20906002020160010154116124f3578160030181815481106124d6576124d66133f9565b905f5260205f2090600202015f0154846124f09190613421565b93505b816003018181548110612508576125086133f9565b905f5260205f2090600202015f0154856125229190613421565b945060010161248a565b5050509250929050565b61100f8282612d62565b6040516001600160a01b03838116602483015260448201839052610cb891859182169063a9059cbb906064015b604051602081830303815290604052915060e01b6020820180516001600160e01b038381831617835250505050612dee565b6125a98133612e5a565b50565b5f5f5160206136205f395f51905f526125c58484611808565b612644575f848152602082815260408083206001600160a01b03871684529091529020805460ff191660011790556125fa3390565b6001600160a01b0316836001600160a01b0316857f2f8788117e7eff1d82e926ec794901d17c78024a50270940304540a733656f0d60405160405180910390a4600191505061096e565b5f91505061096e565b5f5f5160206136205f395f51905f526126668484611808565b15612644575f848152602082815260408083206001600160a01b0387168085529252808320805460ff1916905551339287917ff6391f5c32d9c69d2a47ea670b442974b53935d1edc7fd64eb21e047a839171b9190a4600191505061096e565b6003546040516370a0823160e01b81523060048201525f91630100000090046001600160a01b0316906370a0823190602401602060405180830381865afa158015612713573d5f5f3e3d5ffd5b505050506040513d601f19601f82011682018060405250810190612737919061354c565b9050808211156127be5760035460405163a9059cbb60e01b81526001600160a01b0385811660048301526024820184905263010000009092049091169063a9059cbb906044015b6020604051808303815f875af115801561279a573d5f5f3e3d5ffd5b505050506040513d601f19601f82011682018060405250810190610c7f9190613563565b60035460405163a9059cbb60e01b81526001600160a01b0385811660048301526024820185905263010000009092049091169063a9059cbb9060440161277e565b5f807ff0c57e16840df040f15088dc2f81fe391c3923bec73e23a9662efc9c229c6a0061096e565b61282f612e93565b565b612839612e93565b61282f612eb8565b306001600160a01b037f00000000000000000000000000000000000000000000000000000000000000001614806128c757507f00000000000000000000000000000000000000000000000000000000000000006001600160a01b03166128bb5f5160206136005f395f51905f52546001600160a01b031690565b6001600160a01b031614155b1561282f5760405163703e46dd60e11b815260040160405180910390fd5b7fcab03bc4dbcc648cd59d6bbe9f848d1e9092f914016aa290ee92e18700d1e6f961100f8161259f565b816001600160a01b03166352d1902d6040518163ffffffff1660e01b8152600401602060405180830381865afa925050508015612969575060408051601f3d908101601f191682019092526129669181019061354c565b60015b61299157604051634c9c8ce360e01b81526001600160a01b0383166004820152602401610999565b5f5160206136005f395f51905f5281146129c157604051632a87526960e21b815260048101829052602401610999565b610cb88383612ee6565b8181028281048214831517905f906129e283151590565b81029150509250929050565b80820182811015905f90826129e2565b306001600160a01b037f0000000000000000000000000000000000000000000000000000000000000000161461282f5760405163703e46dd60e11b815260040160405180910390fd5b6040516001600160a01b038481166024830152838116604483015260648201839052610c7f9186918216906323b872dd9060840161256d565b5f60058381548110612a9457612a946133f9565b5f9182526020808320868452600682526040808520338652909252922060079091029091019150612ac4846110bb565b805415612c0157600382015481545f918291612adf916129cb565b9150915081612b005760405162461bcd60e51b81526004016109999061357e565b60019150670de0b6b3a764000090045f5f612b28856001015484612f3b90919063ffffffff16565b9150915081612b855760405162461bcd60e51b815260206004820152602360248201527f6163635354207375622066696e69736865644d6574614e6f6465206f766572666044820152626c6f7760e81b6064820152608401610999565b8015612bfc575f5f612ba48388600201546129ee90919063ffffffff16565b9150915081612bf55760405162461bcd60e51b815260206004820152601d60248201527f757365722070656e64696e674d6574614e6f6465206f766572666c6f770000006044820152606401610999565b6002870155505b505050505b8215612c655780545f908190612c1790866129ee565b9150915081612c615760405162461bcd60e51b815260206004820152601660248201527575736572207374416d6f756e74206f766572666c6f7760501b6044820152606401610999565b8255505b5f5f612c7e8585600401546129ee90919063ffffffff16565b9150915081612ccf5760405162461bcd60e51b815260206004820152601b60248201527f706f6f6c207374546f6b656e416d6f756e74206f766572666c6f7700000000006044820152606401610999565b60048401819055600384015483545f918291612cea916129cb565b9150915081612d0b5760405162461bcd60e51b81526004016109999061357e565b60019150670de0b6b3a7640000900460018501819055604051878152889033907f90890809c654f11d6e72a28fa60149770a0d11ec6c92319d6ceb2bb0a4ea1a159060200160405180910390a35050505050505050565b80471015612d8c5760405163cf47918160e01b815247600482015260248101829052604401610999565b5f5f836001600160a01b0316836040515f6040518083038185875af1925050503d805f8114612dd6576040519150601f19603f3d011682016040523d82523d5f602084013e612ddb565b606091505b509150915081610c7f57610c7f81612f4b565b5f5f60205f8451602086015f885af180612e0d576040513d5f823e3d81fd5b50505f513d91508115612e24578060011415612e31565b6001600160a01b0384163b155b15610c7f57604051635274afe760e01b81526001600160a01b0385166004820152602401610999565b612e648282611808565b61100f5760405163e2517d3f60e01b81526001600160a01b038216600482015260248101839052604401610999565b612e9b612f73565b61282f57604051631afcd79f60e31b815260040160405180910390fd5b612ec0612e93565b60017f9b779b17422d0df92223018b32b4d1fa46e071723d6817e2486d003becc55f0055565b612eef82612f8c565b6040516001600160a01b038316907fbc7cd75a20ee27fd9adebab32041f755214dbc6bffa90cc0225b39da2e5c2d3b905f90a2805115612f3357610cb88282612fef565b61100f613061565b80820382811115905f90826129e2565b805115612f5a57805160208201fd5b60405163d6bda27560e01b815260040160405180910390fd5b5f612f7c6127ff565b54600160401b900460ff16919050565b806001600160a01b03163b5f03612fc157604051634c9c8ce360e01b81526001600160a01b0382166004820152602401610999565b5f5160206136005f395f51905f5280546001600160a01b0319166001600160a01b0392909216919091179055565b60605f5f846001600160a01b03168460405161300b91906135c9565b5f60405180830381855af49150503d805f8114613043576040519150601f19603f3d011682016040523d82523d5f602084013e613048565b606091505b5091509150613058858383613080565b95945050505050565b341561282f5760405163b398979f60e01b815260040160405180910390fd5b6060826130955761309082612f4b565b6130d8565b81511580156130ac57506001600160a01b0384163b155b156130d557604051639996b31560e01b81526001600160a01b0385166004820152602401610999565b50805b9392505050565b5f602082840312156130ef575f5ffd5b81356001600160e01b0319811681146130d8575f5ffd5b6001600160a01b03811681146125a9575f5ffd5b5f5f6040838503121561312b575f5ffd5b82359150602083013561313d81613106565b809150509250929050565b5f60208284031215613158575f5ffd5b5035919050565b5f5f5f5f60808587031215613172575f5ffd5b843561317d81613106565b966020860135965060408601359560600135945092505050565b634e487b7160e01b5f52604160045260245ffd5b5f5f604083850312156131bc575f5ffd5b82356131c781613106565b9150602083013567ffffffffffffffff8111156131e2575f5ffd5b8301601f810185136131f2575f5ffd5b803567ffffffffffffffff81111561320c5761320c613197565b604051601f8201601f19908116603f0116810167ffffffffffffffff8111828210171561323b5761323b613197565b604052818152828201602001871015613252575f5ffd5b816020840160208301375f602083830101528093505050509250929050565b602081525f82518060208401528060208501604085015e5f604082850101526040601f19601f83011684010191505092915050565b5f602082840312156132b6575f5ffd5b81356130d881613106565b5f5f5f606084860312156132d3575f5ffd5b8335925060208401356132e581613106565b929592945050506040919091013590565b5f5f60408385031215613307575f5ffd5b50508035926020909101359150565b80151581146125a9575f5ffd5b5f5f5f5f5f60a08688031215613337575f5ffd5b853561334281613106565b9450602086013593506040860135925060608601359150608086013561336781613316565b809150509295509295909350565b5f5f5f60608486031215613387575f5ffd5b505081359360208301359350604090920135919050565b5f5f5f606084860312156133b0575f5ffd5b833592506020840135915060408401356133c981613316565b809150509250925092565b6020808252600b908201526a1a5b9d985b1a59081c1a5960aa1b604082015260600190565b634e487b7160e01b5f52603260045260245ffd5b634e487b7160e01b5f52601160045260245ffd5b8082018082111561096e5761096e61340d565b5f600182016134455761344561340d565b5060010190565b8181038181111561096e5761096e61340d565b634e487b7160e01b5f52603160045260245ffd5b808202811582820484141761096e5761096e61340d565b5f826134a457634e487b7160e01b5f52601260045260245ffd5b500490565b6020808252600890820152676f766572666c6f7760c01b604082015260600190565b6020808252601d908201527f696e76616c6964207374616b696e6720746f6b656e2061646472657373000000604082015260600190565b6020808252602a908201527f737461727420626c6f636b206d75737420626520736d616c6c6572207468616e60408201526920656e6420626c6f636b60b01b606082015260800190565b5f6020828403121561355c575f5ffd5b5051919050565b5f60208284031215613573575f5ffd5b81516130d881613316565b6020808252602b908201527f75736572207374416d6f756e74206d756c206163634d6574614e6f646550657260408201526a5354206f766572666c6f7760a81b606082015260800190565b5f82518060208501845e5f92019182525091905056fe589d473ba17c0f47d494622893831497bad25919b9afb8e33e9521b8963fccde360894a13ba1a3210667c828492db98dca3e2076cc3735a920a3ca505d382bbc02dd7bc7dec4dceedda775e58dd541e08a116c6c53815c0bd028192f7b626800a26469706673582212207b05daae7c19122f9a8a41fbe878f9fd5373fe0a72dc544edb0469491fe7ee7a64736f6c634300081c0033",
  "linkReferences": {},
  "deployedLinkReferences": {},
  "immutableReferences": {
    "652": [
      {
        "length": 32,
        "start": 10316
      },
      {
        "length": 32,
        "start": 10357
      },
      {
        "length": 32,
        "start": 10761
      }
    ]
  },
  "inputSourceName": "project/contracts/MetaNodeStakeV2.sol",
  "buildInfoId": "solc-0_8_28-091570ed67e84e919c2b0f0668d8a9c813a89582"
}